:10000000C823002095220000337E000081220000DA
:100010008122000081220000812200008122000054
:10002000000000000000000000000000412400006B
:100030008122000000000000012400008122000055
:10004000C5250000C5250000C5250000C525000008
:10005000C5250000C5250000C5250000C5250000F8
:10006000C5250000C5250000C5250000C5250000E8
:10007000C5250000C5250000C5250000C5250000D8
:10008000C5250000C5250000C5250000C5250000C8
:10009000C5250000C5250000C5250000C5250000B8
:1000A000C5250000C5250000C5250000C5250000A8
:1000B000C5250000C5250000C5250000C525000098
:1000C000C5250000C5250000C5250000C525000088
:1000D000C5250000C5250000C5250000C525000078
:1000E000C5250000C5250000C5250000C525000068
:1000F000C5250000C5250000C5250000C525000058
:10010000C5250000C5250000C5250000C525000047
:10011000C5250000C5250000C5250000C525000037
:10012000C5250000C5250000C5250000C525000027
:10013000C5250000C5250000C5250000C525000017
:10014000C5250000C5250000C5250000C525000007
:04015000C5250000C1
:1001540053B94AB9002908BF00281CBF4FF0FF312A
:100164004FF0FF3000F00CB8ADF1080C6DE904CE8F
:1001740000F008F8DDF804E0DDE9022304B070477C
:10018400704700BF2DE9F04786468C460846089E16
:10019400154674461946002B40F0C1808542B2FAD8
:1001A40082F245D94AB1C2F1200300FA02FC95401B
:1001B40094402EFA03F343EA0C0C4FEA154EA8B20E
:1001C400230CBCFBFEF80EFB18CC08FB00F943EA39
:1001D4000C43994528D9EB1808F1FF3704D2994507
:1001E40002D9A8F102072B44A3EB0903A4B2B3FB81
:1001F400FEFC0EFB1C330CFB00F044EA0344A0425B
:1002040014D92C190CF1FF3304D2A04202D9ACF159
:1002140002032C44241A43EA07401EB1D4400023AD
:1002240034607360BDE8F0874746DDE76346F1E775
:1002340092BB431B01214FEA154EAFB2200CB3FB16
:10024400FEFC0EFB1C330CFB07F840EA0343984505
:1002540061D9EB180CF1FF3004D2984502D9ACF106
:1002640002002B44A3EB0803A4B2B3FBFEFC0EFB79
:100274001C330CFB07F744EA0344A7424DD92C195D
:100284000CF1FF3304D2A74202D9ACF102032C448F
:10029400E41B43EA0040C0E7C2F1200395409440C8
:1002A40020FA03F12EFA03F34FEA154E9040AFB251
:1002B4000343B1FBFEFC0EFB1C10190C0CFB07F8EE
:1002C40041EA0041884522D969180CF1FF3004D273
:1002D400884502D9ACF102002944A1EB08019BB284
:1002E400B1FBFEFC0EFB1C110CFB07F743EA0143B8
:1002F4009F420ED9EB180CF1FF3104D29F4202D970
:10030400ACF102012B44DB1B41EA004193E7604658
:10031400E3E76146F7E76046A4E76346B8E783424C
:1003240006D916B9002108467CE7C6E900E0F9E7DA
:10033400B3FA83F78FB9834201D3724508D8BEEB71
:10034400020460EB030301209C461EB9002169E707
:100354003846FAE7C6E9004CF8E7C7F1200CBB4081
:100364000EFA07F522FA0CF42EFA0CF1BA401C43EB
:1003740020FA0CF3B8404FEA144901431FFA84FEF3
:10038400B3FBF9F809FB18300B0C08FB0EFA43EA2F
:1003940000439A4540D9E31808F1FF3004D29A4546
:1003A40002D9A8F102002344A3EB0A0389B2B3FBE8
:1003B400F9F809FB183308FB0EFE41EA03418E45A8
:1003C4002CD9611808F1FF3304D28E4502D9A8F163
:1003D4000203214443EA0040A1EB0E01A0FB029872
:1003E4004145CE46434602D306D14D4504D2013899
:1003F400B9EB020E68EB0403002EA7D0B5EB0E0296
:1004040061EB030101FA0CFC22FA07F3F9404CEA10
:100414000303C6E9003199E74046C5E74346D9E7F7
:10042400034613F8012B002AFBD1181A0138704730
:1004340038B50446C8070D4604D5E10702D50D4872
:1004440007F065F8AA0704D5A30702D50A4807F000
:100454005EF8680704D5610702D5084807F057F825
:100464002A0706D5230704D5BDE83840044807F019
:100474004EB838BD14920000269200003892000055
:100484004A92000013B504F037F9034638B101214C
:10049400254A264802B0BDE8104007F010BC2448A5
:1004A40004F05AF9014628B1224802B0BDE81040D0
:1004B40007F02DB800F044F878BB1F4C684600F0F4
:1004C4006DF82046BDF80430BDF80220BDF80010D8
:1004D40007F01DF800214FF4004005F0EDFF002067
:1004E40007F0E5FE012007F0E2FE022007F0DFFE40
:1004F400032007F0DCFE00214FF4004005F0DCFF90
:10050400002007F0D7FE012007F0D4FE022007F0F8
:10051400D1FE032007F0CEFED0E7084802B0BDE8C4
:10052400104006F0F4BF00BF5C920000508E000043
:100534003504000077920000B1920000969200000A
:1005440038B50025124C54F8060C08F017F828B9F1
:10055400104806F0DCFF4FF0FF3038BD14F8013CC2
:1005640063B154F8060C836821461B689847021E41
:1005740007DA2946084806F0CAFFECE76FF085025F
:10058400F7E70135032D04F11404DCD10020E4E77E
:10059400EE8E0000D0920000F19200002DE9F04FA1
:1005A400142200268BB0314607460DEB020008F0FA
:1005B4009BFA0DF10E030793022337480893B146C3
:1005C400B04606F0A4FF3546B2464FF0140B334C48
:1005D400637953B10122237902FA03F30693237C4E
:1005E4008DF82430637C8DF825302068836805A954
:1005F4005B689847011E10DA294806F088FF013528
:10060400032D04F11404E3D13846A7F800907E804A
:10061400A7F804800BB0BDE8F08F45B9D1466279E4
:10062400BDF90E3042B91F4806F071FFE7E7012D0E
:100634000CBF5646D046F2E7E2791848042A08BFB0
:1006440022680BFB05000ABF9268E1891189807A50
:100654005943227C800644BF02F1FF32D2B2049196
:10066400A07904A90093019202F0A6FB0028009B44
:1006740008D1049B019A13419BB22DB999460125D7
:100684001434A5E7CFDBF7E7012D03D11E4602257D
:1006940014349DE79846B7E713930000E88E0000F2
:1006A40021930000369300002DE9F04F91B00093A0
:1006B40002F004030293C2F3C20301338407054624
:1006C4000E46DDF868900392059340F0BB81041D4B
:1006D40030B1072909D86FF01B0011B0BDE8F08FC5
:1006E40001F00706341DC6F10806009B4FF0000810
:1006F4004FF0040A591E4FF0FF3347460193C34697
:100704005346CDF810800DB1009A22600598002858
:1007140000F3E8809848009A824203D397488242C3
:10072400C0F0E080039AA4EB050E92074FEA9E0006
:1007340000F103810F2F00F2B180002D00F005813C
:1007440007F140020DEB020C019A0CF8200C0CF896
:10075400102C049801300490E7E07A285DD84B28E7
:100764000ED8472859D829282DD8252852D054D80E
:1007740020287AD02338D0F1000B4BEB000B74E027
:100784004C382E2849D8DFE800F0704848484848DB
:100794004848484848484B484848484848484859C1
:1007A400484B4B595959704B6D487048184B184871
:1007B40048827F4B48484B487F0000204FF0000B95
:1007C4004FF0040A38E001222A38C0B202FA00F0DD
:1007D40010EA0E0F49D110F0625C2FD110EA020B1F
:1007E40043D06046013C5444B4FBFAF40AFB04F4DD
:1007F400002D61D0A3EB050CA444B4453FF66BAFC8
:10080400002868D1042B47D159F8043B2360042302
:1008140004342AE0019A013A01924FF0000B24E0DB
:1008240011F8010C6C2834D1002011F8023C8346E5
:100834006C2BC5D14FF0080A5346D3E709F10709D9
:1008440029F00709073424F00704F9E802AB35B1AD
:1008540006982044B0423FF63EAFC4E900AB4FF0E7
:10086400000B08344FF0080A534611F8010F002812
:1008740078D0BBF1000F7FF470AF2528F5D14FF08D
:10088400010B019B013301934FF0040AECE7584636
:1008940094E700208346A5E7082B02D06FF01500EB
:1008A4001BE709F1070929F00709F9E80223C4E95C
:1008B400002308230834D8E768B9042B02D109F1CE
:1008C4000409A4E7082BE9D109F1070929F007096C
:1008D40009F10809EDE7059A013A059259F8042B44
:1008E400009210E7039A900720D54FF0010CA4EB77
:1008F400050E4FEA9E00BEF5007FCFD20F2FCDD854
:10090400F5B107F140020DEB020E019AC0B20EF8E8
:10091400200C0EF8102CBCF1000F3FF41AAF60F05D
:100924007F000EF8200C08F101080137C5F1080218
:100934004FF6DA7E0434069297E74FF0000CDAE7BC
:10094400BCF1000F01D00136EFE70298023600280F
:10095400EBD10098CDE90631FFF762FDDDE9063100
:100964000644E2E7631BB3F5806F97D245B9A6F15D
:100974000804E018B1E600BF208B0000E09F0000EF
:10098400029A9B0828602B709DF81030C2B1EB705E
:1009940085F80280B8F1000F05D0002208A8C5F13F
:1009A400010C97420ED14FF0000AC5F101030DF17D
:1009B400200901930DF1300B574512D1601B8CE6D1
:1009C4006B70E5E710F8013B190608D504EB0C0E33
:1009D400B64503F07F033FF67EAE04F8013B0132D7
:1009E400DFE7B8F1000F03D099F90020002A17DBE4
:1009F400029BD3B11AF80B2004F8012B0022019BAF
:100A040098182044B0423FF666AE99F80000009969
:100A140004F8010B2046039208F059F8039A144491
:100A24000AF1010A09F10109C6E799F8002055F80D
:100A340022300093029B009845F82230FFF7F0FC27
:100A4400421CDCE76FF00D0047E600BF2DE9F04FD4
:100A540097B000AFD7F880B03B62CBF3C003044635
:100A6400894690F802A0FA62BB6141B945780078E2
:100A74000AEB800020444D4517D8A0EB0409E37825
:100A8400FB61BAF1000F02D01BF0010F16D1FB6914
:100A940053BBFB6A1BB1494620463A6A98474D4608
:100AA40028465C37BD46BDE8F08F461C3046FFF74C
:100AB400B7FC0130304409F10109DCE762682378AE
:100AC4007A62FA6A9900796104EB8301002A40F0A2
:100AD40001810E464FF000084D4601EB0A094E45D0
:100AE4004CD101EB0A0610E01BF0020FD1D02378A1
:100AF4009A007A61626804EB83017A62FA6A002AD6
:100B040077D14D46904601EB0A061BF0050F0CBF4A
:100B140002230123FB62FB6906EB430A0BF0020389
:100B2400BB625645BCD016F8021B16F8013C54F8BB
:100B34002390AF4B994502D3AE4B994536D3BB694D
:100B4400002B40D0786A06F0BBFC00283BD0E94675
:100B54008AB06A46A84B53617B6AC2E906314FF4F6
:100B640000731384A54B42F8103F00234FF4125135
:100B7400A34800F007FD023DCD46D2E716F8013B3D
:100B8400F96254F82300FFF74BFCD7F88430F96A74
:100B940001304BB1D7F8883098453EBFD7F8843040
:100BA40023F8180008F10108054498E7BB6923B14C
:100BB400786A06F085FC0028C9D11BF0010F05D125
:100BC400FB6AED1AADE7BB6A002BAAD04846FFF7D3
:100BD40027FCD7F8843053B1D7F8883098453FBF05
:100BE400D7F88420431C22F8183008F10108054482
:100BF40097E7BAF1000F73D01BF0040673D0D04608
:100C0400002607F1480052463B61B96207F05FFFD6
:100C1400B96A3B6901EB0A02BA62FA69F9695200DE
:100C2400FA60BA6A02EB41023A610BF00202BA605E
:100C34003A69B96A8A4258D162781BF0020F18BF28
:100C440000217A6208BF4FEA5801B2181BF0010F65
:100C5400D2B240F09F801BF0040F14BF4046002026
:100C6400BB616270A070E17020463A6A7969FB6AE0
:100C74009847051EFFF614AFBB69414623707B6A93
:100C84003A6A6370FB6984F802A0E37007F14800D4
:100C9400FB6A9847B0F10008C0F2B4807B69A9EB05
:100CA4000A01C91AFB683A6AC91AD7E90A039847BC
:100CB4000028C0F2A9804FF0000BA84408EB0005FF
:100CC40007F1380AB34567D300213A6A0846FB6A3C
:100CD4009847E5E656464FF0000807F1380092E7DA
:100CE4005646D04696E7B04694E7BA6A12F8021B15
:100CF40012F8015CBA6254F825003D4A904202D3CE
:100D04003C4A90421ED3BA6932B1786A7B6006F0DD
:100D1400D7FB7B6800288BD1BA6802BB08F1280294
:100D240007F1300C08F10100944407F1580208F16E
:100D3400020852FA80F00CF8101C5FFA88F800F8E8
:100D4400105C75E7BA693AB1786A7B6006F0B8FB63
:100D54007B6800287FF46CAF1BF0010F09D006F10B
:100D6400280207F13000711C161806F8205CCEB278
:100D74005EE71BF0040F3FF45BAF08F1280207F1B4
:100D8400300008F1010102EB000808F8105C5FFA7A
:100D940081F84DE7002063E71BF80A3054F82390EC
:100DA40087F83730D7F88430FBB133F81B80012142
:100DB4003A6AFB6A07F137009847002824DB0544A8
:100DC400B8F1000F06D14846FFF72AFB00F10108ED
:100DD4001FFA88F8414648463A6AFB6A9847002851
:100DE40012DB05440BF1010B6CE7D7F88480DEE7D6
:100DF400208B0000E09F00005493000004000001D9
:100E0400608E000045464BE6054649E6014B1860F6
:100E1400704700BF9800002080B505460E4617466F
:100E2400984605F067FB034607F06EFE0446DFF8BC
:100E34001890424649F8003039463046A84754F8DD
:100E4400090001F08DFA00BF080000002DE9F04709
:100E5400058B04462807904611D4022905F007059E
:100E640040F0CC80204606F0B3FD78B10138218BE8
:100E7400042811D8DFE800F0C2106D85950001291F
:100E84000CBF45F0100545F02005258388F3118833
:100E9400BFF36F8FBDE8F08701F0070AAA4500F0A1
:100EA400A5800027B9463E46A368002B00F0BC800D
:100EB40041F00801218388F31188BFF36F8FA16883
:100EC400002900F0BA800D68002900F0B68033468E
:100ED40052462046D1F80480C047002D76D02B68B6
:100EE40029461D46F0E701F007035A1F012A1BD8C3
:100EF400002221F00701062B276889B2C4E90022E9
:100F040009D13B4603E0628B013262831B68002BEC
:100F1400F9D141F002012046218306F059FD002851
:100F24007AD041F0200176E0042B0AD121F00701A8
:100F340089B22046218306F04BFD10B141F0200117
:100F44002183218B01F0070AAA454FD00027B94617
:100F5400AAE7236921F0070141F00601062DD3F821
:100F6400009021832DD1B9F1000F3FD041F0080149
:100F7400218388F31188BFF36F8F20463949C8470E
:100F840029E021F00701236941F0040189B2042D0D
:100F9400D3F804902183E6D000274FF0040A3E469C
:100FA40082E721F00701236941F0050189B2052D8B
:100FB400D3F808902183D6D000274FF0050A3E4687
:100FC40072E700274FF0060A3E466DE72B4687E797
:100FD400B9F1000FD1D1EFF31188202383F31288E4
:100FE400BFF36F8F238B23F008032383258BEA063B
:100FF4002ED525F01003238305F007056669218BA0
:10100400002EBFF670AF00232768C4E9003321F037
:10101400070141F001012183218B4FF0000901F008
:10102400070AAA457FF440AF002F9CD041F0080185
:10103400218388F31188BFF36F8F002FC8D03D68D8
:10104400394633465246204606F0EEFC2F46F4E776
:10105400AB067FF51BAF25F02003238305F00705BE
:1010640000E700BF597A00002DE9F047044607461F
:101074004FF00109DFF8508014B93846BDE8F08715
:1010840094FAA4F5B5FA85F509FA05F32E0108EBEF
:1010940005156FEA030A24EA03042B7B002BEBD02B
:1010A40058F806301B694BB9464473680422284635
:1010B400196807EA0A0700F051FADDE7284698475D
:1010C4000028D9D1F0E700BFC08E000030B500225F
:1010D40089B00F490F4807F070FC00220023002458
:1010E400CDE906230E230C4DCDE903344FF44072B1
:1010F4002846CDE90144094B0949009404F02EFF28
:101104000849284607F029FB204609B030BD00BF36
:101114002D11000028070020A00200200514000063
:101124008813002008940000014804F0F1BC00BFBB
:101134008C0200202DE9F04780461F480F4606F038
:1011440033FD0646002830D000252846BDE8F08748
:10115400237B6BB12368DB680BB120469847236877
:101164001B69D3B9636804222046196800F0F6F9B4
:10117400013610344C45EBD3B8F1000FE5D0002D07
:10118400E2D02846FFF770FF0546002FF7D0002174
:101194004FF4A47005F090F9F1E720469847002831
:1011A400E0D00AFA06F31D43E2E705464FF0010AD0
:1011B400024CDFF80C90DDE7100A0020C08E00001E
:1011C400D08E0000014B53F820007047388F000088
:1011D40008B5034608462BB1044A136000F05EFCD0
:1011E400002008BD6FF01500FBE700BF9C00002045
:1011F40010B5044C237813B9034804F089FC012387
:10120400237010BD781300208C02002010B5044612
:10121400064806F0C9FC3CB1054BD3E8EF1F013981
:10122400C3E8E21F002AF8D110BD00BF080A00205D
:101234000C0A002000200146034BD3E8EF0FC3E85B
:10124400E21F002AF9D17047080A002070B5FFF7A1
:10125400F1FF0546074C084EB44200D370BD6368E5
:101264005B792BB123685B6813B129462046984704
:101274001034F1E7C08E0000D08E000010B5044C8D
:101284000449204606F04CFA034B1C6010BD00BF15
:1012940000020020248F0000000A002008B500236B
:1012A400074A4FF400411370064A07481360074A7F
:1012B4001360FFF78DFFBDE80840FFF7DFBF00BFF5
:1012C40079130020080A0020A97B00000C0A0020E2
:1012D400014600220023014806F043BA0002002020
:1012E400014806F0D9BA00BF00020020024B0146B3
:1012F400186806F025BB00BF000A0020014806F06C
:101304005ABB00BF0002002070B5264B1878002895
:1013140047D0FFF7E5FF054670B1234BD3E8EF1F35
:101324000139C3E8E21F002AF8D1204C204EB44210
:101334002DD32846FFF7DAFF1E4B1F4C1B68002BEA
:1013440019DD07F038FB4FF47A72A0FB020302FBAD
:101354000131C30B43EA4143D4E900209B1A40F214
:10136400E9324FEAD13161EB0001934271F100019E
:1013740001D3FFF76BFFD4E9003213F57A7342F11E
:101384000002C4E90032BDE87040FFF7B7BF6368EC
:101394005B7923B12368294620461B68984710349B
:1013A400C5E770BD781300200C0A0020C08E000031
:1013B400D08E0000080A00202007002070B50D4DD3
:1013C400297861B90120FFF7B5FE0B4C0B4EB442EE
:1013D40006D3FFF799FF0028FBD101232B7070BDC2
:1013E40063685B791BB1236820469B689847103477
:1013F400EDE700BF79130020C08E0000D08E0000FE
:1014040000212DE9F0470846FFF794FE044658B33F
:1014140040F267684FF0000907F076FB1B4B1C4A4B
:101424001B58136033B11B4B1B68092B02DD1A4890
:1014340004F06EFB0025194FDFF85CA044B1204690
:10144400FFF712FE044618B94FF0FF384FF0FF398A
:10145400FFF75AFF064628B9B5B942464B465046EF
:1014640004F07AFB3546E9E74FF0FF384FF0FF39D7
:10147400D2E72B689B691BB1002228461146984786
:101484001035BD42F5D3E8E7054DFAE70800000042
:10149400040A00200C0A00208C020020D08E0000D8
:1014A400C08E000013B5184806F07EFB174B1B785E
:1014B40073B1EFF31184202383F31288BFF36F8F8A
:1014C400FFF722FF84F31188BFF36F8F02B010BDC2
:1014D4000F4B1B68002BF9D050B9002200230D4894
:1014E400CDE900234FF40042002305F06BFAEDE749
:1014F4000928EBD1074807F06CFA074802B0BDE8A9
:10150400104004F005BB00BF0C0A00207913002032
:10151400040A0020280700208C02002010B5064B86
:1015240004461B6898472146A060044806F095F9D4
:10153400BDE81040FFF7B6BF9C0000200002002069
:10154400044A054B9B1AB1EBD30F34BF52F8310058
:1015540000207047508E0000C08E0000084B10B46D
:10156400C31A44681B110133237143689A71012221
:101574004368196043685A7110BCFFF739BE00BF55
:10158400C08E00002DE9F04F8FB0C1F34A2804AF9C
:101594000D469146B8607B600C0DB8F1000F63D026
:1015A40000264FF0040B4FF00A0A07F11403C7F8A2
:1015B4000C80C7E907667E620193CDF808B0CDF8C8
:1015C40000A007F11C0332464846F968FFF73EFACB
:1015D400B0F5006F03461CD36C468AB0D9F80410EA
:1015E40004AB26481A46C3E9050140F2FF71D961EC
:1015F4004FF400711984224B42F8103F4FF41251FA
:1016040033462048FFF7BEFFA5462C37BD46BDE84C
:10161400F08FC0F30A0804F11700184420F0070003
:1016240080083B60FFF754FE68F35325044690B1ED
:101634003B6800F11001C7E9083607F11403F961AA
:10164400CDE900A3CDF808B048460F4AF96807F180
:101654001C03FFF7FBF968F353252A4620467B68F1
:10166400B96806F0D3FAD0E704F1170020F00700B8
:101674008008FFF72DFE0446EDE700BF1D9400002F
:1016840004000001788E0000E57B00002DE9F04F96
:1016940087B00446DDE9105ADDE912690F46934626
:1016A4009846A6B31021334652460020CDF8009048
:1016B400CDF81490FEF7F8FF014605F11700084431
:1016C400144B04F007040BF0070BE40020F00700B0
:1016D40003EA412344EA8B1480081C430391FFF777
:1016E400F7FD44EA0554054640B13EB1334652463F
:1016F4000399CDF800901030FEF7D6FF43462246FA
:101704003946284607B0BDE8F04F06F07FBA3146A7
:10171400D3E700BF00FE0F00406820B1034BC01A9E
:1017240040F3CF0070474FF0FF307047508E0000F9
:101734000EB403B503AB53F8042B014604480193DC
:1017440001F072F902B05DF804EB03B0704700BF1A
:10175400257D0000CA0605D48B064CBF0249034907
:10176400FFF7E6BF704700BF5D9400005C94000083
:101774002DE9F04F89B09B46149B9DF84CA006932D
:10178400159B04460593169B0D469046179E04939D
:10179400BAF1000F00F09D8006F48073079306F001
:1017A4001DFA06F00209024600283ED0204691495F
:1017B400FFF7BEFF0746B9F1000F08D016F0440F3B
:1017C40035D12A4620468C49FFF7B2FF074406F07C
:1017D400010353B1894B204653F82A20884B894989
:1017E400002A08BF1A46FFF7A3FF06F48073002BF4
:1017F40049D006F00803002B63D1B8F1000F66D07E
:10180400424620468049FFF793FF0546069B3D4428
:10181400002B6DD1049B002B73D1F30700F1E480FE
:1018240031462046FFF796FFD8E00746C3E7774BDB
:1018340018680028CAD0764B4FF47A791B684FF4A5
:101844006161B5FBF3F5B5FBF0F300FB135509FB40
:1018540005F5B3FBF1F2B5FBF0FE4FF03C0C01FBD8
:10186400123100FB1E55B1FBFCF309FB05F5B5FB7A
:10187400F0F50CFB131120460091CDE901E5654913
:10188400FFF756FFA2E706F00803EBB1624B2046D0
:1018940053F82A206149FFF74BFF0546B8F1000FC2
:1018A40005D0424620465849FFF742FF0544BBF1A4
:1018B400000FABD05A4620465949FFF739FF05447B
:1018C400A4E74FF0000BE1E706F00805E6E745461C
:1018D4009CE7BBF1010F069B06D1002B64D1049B4E
:1018E400002B7BD000250CE0002BF8D04D485CE0A9
:1018F4004D48069B22464D4905F0B1FD049B002B43
:1019040068D0DFF82C81DFF82C91049F3146102F2A
:10191400204628BF10274FF0000BFFF71BFF5D4543
:1019240045DC059B494620461A78FFF701FF4FF036
:10193400010B1BF0070F03D141462046FFF7F8FEC9
:101944005F453BD9059B4946204613F80B20FFF71A
:10195400EFFE0BF1010BBBF1100FEAD14FF0000BBE
:1019640020463549FFF7E4FE5A46059B20469A5C1B
:10197400A2F120015F2928BF2E223049FFF7D8FEAB
:101984000BF1010BBBF1100F1DD01BF0070F03D19E
:1019940041462046FFF7CCFE5F455A46E5D841460E
:1019A4002046FFF7C5FEEBE71F485546A1E7414631
:1019B4002046FFF7BDFE0BF1010BB0E7204620499E
:1019C400FFF7B6FEC5E7059B3B440593049BDB1B71
:1019D40004939AD1BAF1000F7FF41FAF204609B0E7
:1019E400BDE8F04F06F08FB92046054A0549FFF7D8
:1019F4009FFE15E76494000068940000488F00007F
:101A04005F9400008D94000090940000180A002058
:101A1400140A0020719400005C8F0000949400006C
:101A24009A940000537D0000257D00002D2A0000BB
:101A3400A79400009F940000A9940000AB940000B8
:101A4400A594000042F20F7373B58B4228BF0B4676
:101A540005680446052168460D4A05F099F90646CD
:101A6400636828460B225B680A4906F03EF96368FE
:101A74003246694628465B6806F037F963681B22DC
:101A840028465B68044906F030F902B070BD00BF17
:101A940071960000CA940000AE9400000021012356
:101AA400064A904206D8064A01B901231360054B41
:101AB40018607047012140085B00F2E740420F00C4
:101AC400140A0020180A0020F8B50D460446064FF3
:101AD4004618B44201D12846F8BD14F8011BBB686E
:101AE40001485B689847F4E7EC8B0000014B036006
:101AF40000207047A48F000008B5044805F007FDD6
:101B0400BDE80840024805F002BD00BF1095000082
:101B140045950000014804F0F9BF00BFA48F000000
:101B240038B5044618B90F4B0F485B68984761688D
:101B3400B1F5683F10D0B1F5680F0DD00B4DA94237
:101B44000AD011F46861206807D00146084806F0FD
:101B540068FD00232360656038BD142206F0C4FFCD
:101B6400F9E700BF90010020739500002C5F5CA989
:101B7400400F002008B560B34368B3F5683F0ED04A
:101B8400B3F5680F18D0144A934220D000684FF080
:101B9400FF324FF0FF3303F007FF58B115E0012285
:101BA4000368D3E8EF1F002903D1C3E8E02F00281E
:101BB400F7D10AD1002008BD0368084A1B7803F551
:101BC400807352F82330002BF4D00548F3E705481E
:101BD400F1E76FF4E040EEE72C5F5CA900000350EE
:101BE400E98FFFFFEA8FFFFF08B520B34368B3F521
:101BF400683F09D0B3F5680F13D0114A93421DD042
:101C0400006803F049FF14E000220368D3E8EF1FE3
:101C1400012903D1C3E8E02F0028F7D109D00948EE
:101C240008BD00210368084A1B7803F5807342F855
:101C340023100020F4E76FF4E040F1E70348EFE7F6
:101C44002C5F5CA9E98FFFFF00000350EA8FFFFFC0
:101C540010B5044618B91D4B1D485B689847636866
:101C6400B3F5683F2FD0B3F5680F2CD0194A9342CF
:101C740019D1236803BB4FF0FF324FF0FF332146E5
:101C8400154803F063FE08B923681BB90F4B1348CA
:101C94005B68984714220021206806F025FF4FF462
:101CA4006863636008E0B3F5683F0DD83A2B03D04E
:101CB40040F6BA629342DED1206806F0EAFC63681B
:101CC40043F03A03636010BD054AF3E79001002036
:101CD400739500002C5F5CA9400F002099950000CB
:101CE4003A00003A08B5064940231422054806F094
:101CF4008AFCBDE808400449044804F079BF00BFE9
:101D0400400A0020400F0020AC8F0000C08F00006C
:101D14002DE9F04706460C4600AF002936D0D1E93C
:101D24000012E9468AB06D46A3684FF0050AA8463A
:101D34001F48C5E90723C5E9050148F810AF00238A
:101D440042464FF421511B48FFF71CFCD4E903120F
:101D5400CD466369AD461848C5E90723C5E90501C1
:101D6400C5F810A0002342464FF421511148FFF753
:101D740009FCCD46E3690121104A0E4805F09FFF96
:101D8400A36901210E4A0B4805F099FF012E07D1E2
:101D9400EFF305830B4A31460648103B05F08FFFED
:101DA4002146304603F026FCBD46BDE8F08700BF5F
:101DB400C6950000A08E0000F59500002496000052
:101DC400339600006196000030BFFFF7FDBF00BFEF
:101DD4002DE9F04105460B4EDFF82C80324606EB28
:101DE4000807CC1B2046094906F071FEA01942469B
:101DF4000021083C06F078FE2C6707F10800BDE8D6
:101E0400F08100BF0000000004000000D08E00003C
:101E1400074A936893F90E10002907DB526993422D
:101E24001FBF044A536843F080535360704700BF98
:101E34006811002000ED00E070B52A4C06460D46FE
:101E440029482A4905F0FAFFA36ADB0647D5264844
:101E5400274905F0F3FF1120A36A1C0704D5224883
:101E6400244905F0EBFF12201E4CA36A990712D5F2
:101E740021491D4805F0E2FF636BA26A120609D5E9
:101E840001211E4A184805F01AFF1EB1A36A23F067
:101E94008003A3621320134CA36ADE0704D51248FF
:101EA400174905F0CBFF1420A36A9C0604D50E48FD
:101EB400144905F0C3FF15200A4B9A6AD10658BF8E
:101EC4009A6A9A6A920642BF5A6A22F400525A6285
:101ED4009A6A42F0FF029A6200232B7070BD1020B0
:101EE400BAE700BF00ED00E0A08E00007496000089
:101EF4008A960000BD960000D0960000E896000087
:101F0400FE9600001D97000010B5244C2449254876
:101F140005F094FFA36A99013ED52248224905F0B1
:101F24008DFF1E20A36ADA0104D51E481F4905F05F
:101F340085FF1F20194CA36ADB0204D519481C49EC
:101F440005F07CFF0220A36A1C0304D51548194937
:101F540005F074FF2120114CA36A590304D51148DC
:101F6400154905F06BFF2220A36A9A0304D50D4896
:101F7400124905F063FF2320084CA36ADB0304D550
:101F840008480F4905F05AFF2420A36A6FEA034367
:101F94006FEA1343A36210BD1D20C3E700ED00E008
:101FA4004C970000A08E0000649700007797000013
:101FB40091970000BB970000D9970000FE9700009E
:101FC4001898000070B5294C06460D462848294942
:101FD40005F034FFA36AD9043CD52548264905F009
:101FE4002DFF1720A36A1A0504D52148234905F0BB
:101FF40025FF18201D4CA36A9B0512D51C482049B7
:1020040005F01CFFA36BA26A100409D501211D4A27
:10201400174805F054FE1EB1A36A23F40043A362DB
:102024001920124CA36A590504D51148164905F024
:1020340005FF1A20A36ADA050ED50D48134905F0E9
:10204400FDFE1B20094A936A43F47F4393620023F5
:102054002B7070BD1620C5E7A36A9B04F2D5044813
:102064000B4905F0EBFE1C20ECE700BF00ED00E09F
:10207400A08E00004398000059980000BD9600000F
:102084006A9800008398000098980000B3980000B4
:102094001D9700002DE9F0418AB0654B0446D3F842
:1020A4000480002600AFC8F3080586F31188BFF347
:1020B4006F8F02F07F43B3F17F4F07D102F00C031F
:1020C400082B12D15B495C4805F0B8FE0026344663
:1020D4000023FB71EB1E092B00F28980DFE803F07B
:1020E4000A7F827C87878787878510074CBF0C46C9
:1020F4000126EDE75149504805F0A0FE00234C4D60
:10210400FB71EB6A9A0705D54D494B4805F096FEDD
:10211400002332E0EB6A002B01DA4A49F5E7EB6A67
:102124005B00F5D54849444805F088FE6B69A2690F
:1021340043F480736B61BFF34F8FBFF36F8F6B6991
:1021440032F8022C23F480736B61BFF34F8FBFF31B
:102154006F8F4DF602739A4208D0AB6ADBB273B349
:102164000120F91DFFF768FE034606E023680121FC
:10217400364A314805F0A3FD2368FA79DAB907F144
:10218400080504F1200C2A4620686168083403C25B
:1021940064451546F7D17A6A002E44D0C2F308018B
:1021A40021B96FEA52226FEA42227A62184607F195
:1021B4000801FFF7ADFD2837BD46BDE8F081AB6AE5
:1021C40013F47F4F04D00120F91DFFF7FBFECBE78A
:1021D400AB6AB3F5803F9BD3FFF796FEC4E70020BC
:1021E400F91DBFE70020F91DEFE719498DE7194AEA
:1021F40018F4F87FE8468AB0174B18BF13466A46AE
:102204001649103DC2E905134FF400731384144BAF
:10221400D56142F8103F00234FF411510648FFF7EF
:10222400B1F9C54674E722F4FF7222F00102BCE75B
:1022340000ED00E0F9980000A08E00002499000051
:102244003B9900005C9900006A990000899900009C
:10225400A5990000E0980000CB980000C9990000FF
:1022640004000001044B5A6942F010025A615A6991
:1022740042F480625A61704700ED00E0EFF3088099
:10228400EFF3098101B57246FFF704FF01BD00BFFA
:10229400002080F31488BFF36F8F002080F30A8836
:1022A40080F30B8802F016FB00200E490860BFF390
:1022B4004F8F0D4880F3088800F02CF8202080F31D
:1022C40011880A484FF40061401880F30988EFF33D
:1022D40014800221084380F31488BFF36F8F00F049
:1022E40003F9000094ED00E0C823002088160020C4
:1022F400002318460649D1F89020C2F307229342DE
:1023040000DB7047C1F89830C1F8A0000133F6E74C
:1023140000ED00E010B572B6002484F31388FFF7D3
:10232400E7FF23464FF0FF300C4A03F1200101334D
:10233400102B42F82100F8D100234FF0FF30074A58
:1023440003F160010133102B42F82100F8D162B689
:10235400BFF34F8FBFF36F8F10BD00BF00E100E0EC
:10236400084B9B6883420BD1EFF3058343B1064BC3
:102374005A6842F080525A605A6A22F400425A6201
:1023840006F0BCBA6811002000ED00E06FF00A010D
:10239400084A93689967084958674B6843F0805323
:1023A4004B60002383F31188BFF36F8F9368986F9A
:1023B400704700BF6811002000ED00E0EFF31183C7
:1023C400202383F31288BFF36F8F4FF00061084A14
:1023D40053699360074A5160196F074A11600021DD
:1023E4005A6F596782F31188BFF36F8F704700BF2C
:1023F4006811002000ED00E05C0F00200E498A689F
:102404004FF030001044EFF3098C80E8F01F74465D
:102414007046FFF7D3FFA64607498A6802F13000E9
:1024240090E8F01F8CF3098802F1000004B505F070
:102434000DFDBDE804407047681100201EF0040F34
:102444000CBFEFF30880EFF30980816911F8021CD7
:102454000229FFD001B505F0E6FC01BD40B2002819
:1024640007DB01234109034A00F01F00834042F8BF
:102474002130704700E100E040B200280CDB01226B
:102484000649430900F01F008240203341F823200D
:10249400BFF34F8FBFF36F8F704700BF00E100E0C1
:1024A400054B420953F82220012300F01F0003FAD0
:1024B40000F01040704700BF00E100E040B2002887
:1024C40001F10101ACBF00F16040064B4FEA41113C
:1024D400C9B2ABBF00F5614000F00F0080F80013F3
:1024E4001954704714ED00E00B4A08B50B4B22F069
:1024F4007F029A60BFF34F8FBFF36F8FD3F88820AA
:1025040022F47002C3F8882003F05EF904F090F816
:1025140000F04AF803F098F90000000000ED00E034
:1025240042F8203C009B0B4942F81C3C019B21F0E3
:10253400010142F8183C029B42F8081C42F8143C82
:102544004FF0807342F8043C0023203A026543674D
:10255400704700BF1D0E00000C4B15469860026FBB
:102564000B4B0E461A60036E83F30B882C4686F3DE
:1025740009884FF00000074B984720464FF00001B0
:102584004FF000024FF00003034C20476811002075
:102594005C0F0020597E00001D0E00001022014B2C
:1025A4001A61704700ED00E0002320210348C2189F
:1025B4000133452B82F80013F9D1704700E100E0A4
:1025C40008B5EFF30583064A103B02EBC30152F84A
:1025D400330049688847BDE80840FFF719BC00BFCD
:1025E400288C00001FB5094C094A234601210948DB
:1025F40000F012F900230393074B0121E41A01A808
:102604000193029400F012F904B010BD00000720F9
:1026140000000020D08F0000A002002010B50C7A2A
:102624000B6804F01F0223F01F031A43CB686409EC
:1026340023F01F03054943EA440343F00103C1F8AF
:102644009800C1F89C20C1F8A03010BD00ED00E056
:1026540010B50A4BD3F89030C3F30723013B9842DB
:1026640008D901210346064A064805F028FB6FF005
:10267400150010BDFFF7D2FFFBE700BF00ED00E03F
:10268400E0990000988E00002DE9F04F8946144629
:1026940006464FF00008514D85B0C84527DAD6F8F4
:1026A40004A0BAF1000F44D0BAF11F0F17D91AF0E1
:1026B4001F0F14D1D6F800B01BF01F0F0FD15846CE
:1026C40005F004FC07460AEB0B00013805F0FEFB9D
:1026D400874210D06FF01507414A3B4601E043465C
:1026E400404A0121404805F0EAFA6FF015042046FB
:1026F40005B0BDE8F08F17F1160FEDD0BC42EBDD4D
:10270400C5F89870D5F89C10C5F89870D5F8A03025
:1027140021F01F0143F01F0BD6E900321A449942FD
:1027240002F1FF3A1DD1D34507D13146F8B205F085
:10273400D6FB08F101080C36AFE73146C5F89870AE
:10274400D5F89C3022F01F0203F01F031343C5F891
:102754009C30E0B205F0C3FB10F1160FC5D0441C49
:10276400E7E7C5F89870D5F8A020013B23F01F03D4
:1027740002F01F021343D3453146E0B2C5F8A0303E
:10278400E8D005F0ACFB10F1160FAED0C5F8987088
:10279400D5F89C209DF808300BF1FF3B62F304034D
:1027A4008DF80830D5F8A0309DF808205B0863F355
:1027B40047128DF80820D6E900321344009323F021
:1027C4001F035B44A3EB0A03013023F01F03694694
:1027D400C0B20393FFF73CFFBEE700BF00ED00E08B
:1027E400299A0000069A0000988E00000522044BE6
:1027F400C3F89420BFF34F8FBFF36F8F704700BFB0
:1028040000ED00E0BFF35F8F0022024BC3F8942079
:10281400704700BF00ED00E010B5034C2278FFF7CD
:1028240033FF207010BD00BF7B1300202DE9F74F4C
:10283400294D8A4606464FF00008AB46274FD0453F
:102844001BDAD6F80490B9F1000F3FD0316808467E
:10285400019105F03BFB0199044609EB01000138A5
:1028640005F034FB84424FF014021D4B08D002FBE8
:1028740008F36FF015024BF8032003B0BDE8F08FA6
:1028840014F1160F2C60F8D01978A142F5DD02FB83
:1028940008B0C7F89840C7F89840D7F89C4000F1B2
:1028A4000801007B64F304000871D7F8A0000C79D8
:1028B400400860F347140C71D7F89C1021F01F01F5
:1028C4006960D7F8A01021F01F01296108F10108FF
:1028D40014350C36B3E700BF600F002000ED00E0B4
:1028E4007B130020F0B54149414CD1F89030256864
:1028F400C3F307239D4287B075D80020FFF782FFFA
:102904003C4BC1F8C030854216D13B4C01A8257020
:10291400FFF7ECF800250646384FAE4213D10020ED
:1029240023783249D1F89020C2F30722934254DB32
:10293400FFF75CFF00202FE0616801EB0011FFF757
:102944006DFE0130DFE70199280101EB0513DA6818
:102954003A40B2F5001F21D0B2F5800F2BD0B2F56A
:10296400801F38D15A689B680958013B22F01F0028
:1029740003440120844623F01F0340EA4C10CDE9B0
:1029840002218DF8100002A920780593FFF760FE5C
:1029940000281DDA6FF0150007B0F0BD5A689B6877
:1029A4000958013B22F01F0003444FF0020C0120A0
:1029B40023F01F03E1E75A689B680958013B22F0A2
:1029C4001F0003444FF0000C062023F01F03D4E73C
:1029D40023780133237001359FE7C1F89830C1F89B
:1029E400A00001339EE74FF0FF30D5E700ED00E093
:1029F400DC8F0000AAFF44007B1300200000F0FFDE
:102A040008B5024B1B689847002008BD740F0020CE
:102A1400034B044A1860937843F0020393707047A1
:102A2400740F0020C8000020F0B587B007460E469A
:102A340014460021102268461D4606F055F802236C
:102A44008DF80230054B2A4621466846CDE90476C6
:102A5400019304F0C9F907B0F0BD00BF157F000071
:102A640008B50649064821F00701C1F1005202F5F4
:102A7400E02204F09CFC002008BD00BFCF2700200A
:102A8400780F002007B50DF1070005F03DFC114B50
:102A940098421CD14FF480620F4B1049C3F8B825FB
:102AA4004FF40062C3F83C259DF8070005F018FCBC
:102AB4000B499DF8070005F00EFC01209DF8073036
:102AC400984002F025F8002003B05DF804FB6FF095
:102AD4000B00F9E70000AD0B00A002502CA002503F
:102AE40028A10250054B03EB8000D0F8003223F0FC
:102AF400E04343F04053C0F800327047002584504F
:102B0400012208B50A4B0B49C3F800250223002013
:102B1400C1F8D036FFF7E6FF1046FFF7E3FFC1F830
:102B24000427C1F80429C1F8002B002008BD00BF08
:102B34000010005000400050052370B5144D154E90
:102B44002C780134B4FBF3F303EB8303E41A05F0AC
:102B540081FB114A137823B156F82430C01A072890
:102B640014D94FF05023D3F8141141B10021C3F804
:102B74001411D3F814312C700CB9012313702C7870
:102B840005F068FB46F82400012070BD0020FCE736
:102B94007D130020840F00207C13002048B1054BD6
:102BA400054A1B68B3FBF2F35843044B43F001039B
:102BB40018477047FC00002040420F00E08E0000E0
:102BC4000149024804F053BF04900000980F00200C
:102BD4004FF47F032DE9F041D3F830210646072A4C
:102BE4000D46D3F8343120D1023B032B02D8124ACC
:102BF400D35CD3B14FF050244FF0010800270520D7
:102C0400C4F81886C4F8147605F063FB4046C4F88B
:102C1400148605F05EFBC4F81476C4F818763046C2
:102C24002B46BDE8F041002118474FF05023002205
:102C3400C3F81426F3E700BF5F9A000070B5049C44
:102C4400C4F30726304601F0E3F9E5B2014628460D
:102C540005F052FB00220120074BA40B04F0FC04F6
:102C64001A51A84001F05AFF304601F085FB28466E
:102C7400BDE8704002F046B880A0025073B501A8C8
:102C840002F03AF8264B984247D101F057FB041E54
:102C94000ADA9DF8040002F035F801212346214A9E
:102CA400214805F00CF835E040F607031F4D8DF878
:102CB4000540AE68ADF806307468019B14B96FF036
:102CC4005704EAE708212846194AA047041EE4DB12
:102CD4003369002BF3D00122082128469847041EAB
:102CE400DBDB01209DF80430984001F011FF9DF8D2
:102CF40005009DF804509DF8076005F095FA01461B
:102D0400284605F0EDFA0B4BB60045F000459D5101
:102D1400002CC2D1204602B070BD6FF01204BCE793
:102D24000000AD0B639A0000B08E0000008C000020
:102D34003D2D000080A102502DE9F3411446836823
:102D44001B690BB100229847C4F30726304601F0F3
:102D540067F90546304605F067FA4FF00008E7B218
:102D64000146384605F0CCFA104B220E920043F887
:102D74000280304601F04CF90D4A4FEA943C0CF0C5
:102D8400FC0C47F0004342F80C300146384605F08D
:102D9400A2FA084B05F132020093304643460194EF
:102DA400520005F04BFA02B0BDE8F08180A1025058
:102DB40080A00250412C000013280ED8084A12F8B3
:102DC400103053B102EB4002527832B108684343E9
:102DD40093FBF2F300200B6070476FF0150070470F
:102DE400949A00000122054BC3F8002590F8761050
:102DF40009B1DA6070471A605A60704700E0005009
:102E0400F8B50B798D7903F01F02072A1DD80C78C9
:102E14000B2C15D8DFE804F0070707071406141471
:102E24000E10141204244878032811D0042821D049
:102E34002A4A06E00524F6E70624F4E70724F2E725
:102E4400274A0121274804F031FF6FF01500F8BD2F
:102E5400012644F20A074888B84239D00CD844F213
:102E64000307B84216D044F20507B8422ED078B30F
:102E74001D4AE6E70026ECE744F21407B84229D0DD
:102E840044F22807B84227D044F20F07B842EFD1E2
:102E9400032000E00020C3F340131B0543EA04238E
:102EA40043EA063343EA004300204F790F491144B3
:102EB40081F89070110101F1A04101F56041C1F860
:102EC4001835C1F81455C1F81005C0E70120E2E730
:102ED4000220E0E70420DEE70520DCE7DB9A0000BF
:102EE400BC9A0000588E0000FF9A000000000020E9
:102EF400F7B50D464FF0FF334FF0FF32604802F054
:102F04002BFE6E68731EFE2B05D95E4A01215E48B6
:102F140004F0CCFE12E000231A465C485C4F26FA0B
:102F240003F111F0010134D017F803C0BCF1000F14
:102F34000CD1584A0121544804F0C1FE6FF0150425
:102F44004F4802F0E5FD204603B0F0BD6C7C00EB79
:102F5400031E003C18BF0124DEF81815013221F0CD
:102F6400807141EA0461CEF8181503F15101090199
:102F740040F801C0D2B20133082BD0D12B7CA3F18D
:102F84000801062916D8DFE801F0171519150915E7
:102F9400130003F1510424010151ECE702233B49DE
:102FA400012AC1F8F0356B7C0AD95BB13A4AADE726
:102FB4000323F4E7394ABDE70023F0E70123EEE7F2
:102FC400082B10D8C1F8F4352B6851006BB9EB68A5
:102FD4008B420ED2324A00912B48012104F079FE33
:102FE4006FF00B04ACE72F4AA4E79B8903FB0111A4
:102FF400EDE72F46A968254B2B4CC3F82C1604F19A
:103004006406C3F830260FCF0FC63B6827463360EB
:10301400002626662B6873B30FCB04F1780585E888
:103024000F006566A4F8886028B3D7E8EF3FC7E8C7
:10303400E26F002AF9D11D494FF400400F46314692
:10304400A56F0023E5FB0071194A3846FDF780F8A7
:103054000022CDE90001002304F1080003F0B2FCD2
:103064004FF0FF324FF0FF33124802F075FD00B10C
:103074002066246E64E70C48FFF7B4FEF0E700BF57
:10308400400000202A9B0000588E000000E0005001
:1030940090000020489B0000879B0000629B00007A
:1030A400DC9B0000B99B0000000000203F420F00A1
:1030B40040420F005000002010B500240D4B0E209C
:1030C400C3F80441D3F80421C3F81041D3F8102104
:1030D4001222C3F80423FFF7C1F9224601210E206E
:1030E400FFF7ECF90448836C13B9403002F010FD8B
:1030F400002010BD00E000500000002038B52C4B2B
:10310400D3F80421002A45D00022C3F80421D3F8BF
:1031140004110121274C9960C3F80025636E2546EC
:103124009BB3E36FB4F8882033B104F1640198478A
:10313400012814D0022823D0B4F88830B4F88420AD
:103144009A421DD90133A4F88830194BD3F82C26A0
:10315400D3F8341689B202EB4102C3F82C26A36FCC
:1031640023B9BDE838401348FFF73CBED5E8EF3F2C
:103174005A1EC5E8E12F0029F8D1012BF1DC38BD36
:10318400A36F13B10C4805F024FCBDE838400B488C
:1031940002F0BEBCD3F810110029F0D0C3F81021FE
:1031A400D3F8102101229A601A605A60E7E700BF41
:1031B40000E0005000000020080000205000002023
:1031C400084B70B5C31A0D4607499B100446594372
:1031D4004022064804F0CBFE2B4601462046BDE8BB
:1031E40070401847C80F0020B76DDBB6B08B0000E5
:1031F400402373B50B4C0093041B0B460D460A4940
:10320400A41061430646094A094804F0DBFE011E86
:1032140005DA30462B4602B0BDE87040184702B0CC
:1032240070BD00BFC80F0020B76DDBB63180000051
:10323400B08B000010B5EFF31184202383F31288C0
:10324400BFF36F8F074A136823F00201DB07116095
:1032540002D4012005F00BF984F31188BFF36F8FBA
:1032640010BD00BF681000202DE9F84300220121A1
:1032740006460520FFF722F9114801F055FC114BD1
:10328400984219D101F060FC00244FF01C090C276E
:10329400DFF834803569414609FB045004F0E7FB4C
:1032A400002807DB012307FB04551C44042CAB67EF
:1032B400F0D10020BDE8F8836FF00400FAE700BF06
:1032C400C93300000000AD0B1C9000001FB50022A4
:1032D4000123CDE902236B46084ACDF800D0CDF88E
:1032E40004D004F09CFE002805DB4FF48042002348
:1032F400684602F031FC05B05DF804FB678000000D
:103304000C22104B014602FB0033002030B4D3E9F9
:103314001C521867EFF31180202484F31288BFF342
:103324006F8F9C6F04F0C00444F002049C6780F328
:103334001188BFF36F8F1DB12B4630BC024818476C
:1033440030BC7047C80F0020B08B000010B4EFF3FE
:103354001182202383F31288BFF36F8F174801680B
:1033640041F002040460C80707D482F31188BFF354
:103374006F8F012010BC01F0FFBB4FF05021D1F83A
:103384000C04D1F80C14C907EFD5EFF3118083F3C3
:103394001288BFF36F8F0A498B6F03F0C00343F0A9
:1033A40002038B6780F31188BFF36F8F82F3118858
:1033B400BFF36F8F002010BCFFF7A2BF681000207E
:1033C400C80F0020062812D8DFE800F0040F1111FE
:1033D400110D0B00064B986F10F0070007D1FFF793
:1033E4008FBF0220FBE70320F9E70120F7E77047CE
:1033F400C80F00202DE9F041012207463649D1E8E3
:10340400EF3FC1E8E02F0028F9D133B933493448FC
:103414004B60CB608A6004F03DFB7B1E012B2BD8F4
:10342400012F07D14FF05023D3F81C3403F00303CA
:10343400022B21D005F08BF90546F8B9294B1B78EE
:10344400E3B14FF0502302220646C3F808234FF09D
:103454005024DFF89480D4F81824D4F81834D20314
:1034640015D503F00303022B01D0012F0FD16DB347
:1034740086F31188BFF36F8FBDE8F081EFF31186F7
:10348400202383F31288BFF36F8F0125DFE7C5B1D3
:10349400304604F0FFFCD4F81835DBB2012BDAD146
:1034A400D4F80421002AD6D00022C4F80421D4F888
:1034B40004210222C4F818252022C8F88021A36020
:1034C400C9E70021212002F0F7FFE4E74FF0502381
:1034D4000222C3F80423CFE7C40F0020B40F002056
:1034E400E40F00208213002000E100E008B5074843
:1034F40005F044F838B10648FFF78AFA0448FDF7A6
:1035040085FC002008BD6FF01200FBE7EC8B000087
:10351400193500000A2838B50446074D04D1AB68B4
:103524000D2128465B689847AB6803485B68E1B2A5
:103534009847204638BD00BFEC8B0000F0B54068CA
:1035440001F01F04057B87B044EA45140569002D8A
:1035540063D0B2F5001F00F1100506D121462846BC
:1035640005F005F8002007B0F0BD0027B2F5800F84
:1035740001AE0197776039D1B3F1007F14BF052301
:1035840004238DF804300023CDE904630393836896
:1035940023FA01F111F001011AD1B2F1A07F17D180
:1035A40004F01F03620903F180032AD0012A3AD1EF
:1035B4001E4A52F82330DB070AD40DF103063246C3
:1035C4002146284601F00AFE194B98421BD0029668
:1035D4002146284603AA01F0BDFC164B98421FD190
:1035E40001222146284601F05BFEBBE7B3F1C06F20
:1035F40005D0B3F1007F14BF01230223C1E70323E5
:10360400BFE70D4AD5E73146284601F043FE094B92
:103614009842DCD06FF00B00A5E76FF08500A2E7BD
:103624006FF015009FE751F82330FFDE0028845027
:103634000400AD0B0000AD0B0025845038B545687F
:103644002B69B3B11035284601F014FE044680B945
:103654000146284601F0DCFD084B98420BD1224676
:103664002846074901F0B4FD224605210D20FEF746
:1036740025FF002038BD6FF00400FBE70000AD0B10
:10368400893600004209034670B502D0012A17D0DA
:1036940070BD0D4E326951680029F9D0012503F03F
:1036A4001F030C689D400029F2D08A682A4002D08A
:1036B40030464B6898472CB1236821461C46F2E7F4
:1036C400024EE7E72346F8E7D88B0000C48B0000DE
:1036D4002DE9F04340F206354668D00648BF032082
:1036E400337B02EA050558BFC2F3401087B001F0EE
:1036F4001F07B5F5837F144647EA43178DF8030087
:1037040043D00FD8062D18D007D8B5B1022D3ED01E
:103714006FF0150007B0BDE8F083B5F5807FF7D1F1
:1037240001250AE040F20222954232D0B5F5407FED
:1037340031D0B5F5007FEBD1022522032DD501232D
:1037440072688B409360326982BB07F01F037F0964
:103754002AD0012F77D13E4A02EB830284F48033CE
:10376400D2F80012C3F30043C4F3404444EA4304D0
:1037740021F4706144EA800421F00F0144EA052336
:103784000B43C2F800320020C4E70725D5E704251F
:10379400D3E70525D1E70325CFE7630341BF012321
:1037A40072688B40D360CEE72A4AD5E71036394693
:1037B40030460DF1020201F011FD14F4403F804641
:1037C4000CD13946304604F0D0FE234B9845DAD16B
:1037D40030469DF8021001F057FDD4E74FF0000980
:1037E40001AB3946304603AACDE90439CDE9019944
:1037F400CDF80C9001F0AEFB174B984288D114F42D
:10380400003315D09DF8033084F48034C4F30044AD
:103814008DF80E3039464B46304603AA8DF80C50CD
:103824008DF80D4001F052FC0B4B9842CDD06FE760
:10383400CDE9043339460DF10303304603AA03935B
:1038440001F088FBF0E7803352F82330FFDE00BF3D
:1038540000288450002584500000AD0B10B50446A8
:103864000269A2B0C2F880001F49002001F04AFE9C
:10387400002201212A20FEF721FE6468842200210F
:1038840001A805F031F96368B3F5803F04D3022140
:10389400164A174804F00AFA2368B3F5803F04D3A4
:1038A4000221144A124804F001FA00230120219352
:1038B40001AA61680432D940C90744BF00FA03F180
:1038C40042F8041C2168D940C90748BF00FA03F133
:1038D40003F1010348BFD163102BEAD101A801F021
:1038E40029FE002022B010BDD53900006B9C0000D9
:1038F400908E0000979C000038B50F290C4605698E
:103904003CD843681B68CB40DB0737D5D5F88430F7
:10391400CB4003F001031AB9EBB96FF077002CE048
:10392400002BFAD155F8213023B90221154A164843
:1039340004F0BCF9D5F8843013B92A20FEF78EFDC3
:103944000122D5F88430A2401343C5F88430E0B294
:1039540001F010FE0AE0C8B201F014FE0122D5F80D
:103964008430A24023EA0203C5F88430D5F88430B9
:1039740013B92A20FEF780FD002038BD6FF0150032
:10398400FBE700BFC39C0000908E000038B50546DD
:103994000C4622B102210C4A0C4804F087F90F2C82
:1039A4000ED86B685B68E340DB0709D50123002070
:1039B400A400E4B204F1A04404F52834236038BD23
:1039C4006FF01500FBE700BFF39C0000908E000031
:1039D40070B5D1F880600F2804460D46736803D88B
:1039E4001B68C340DA0704D402210E4A0E4804F0CF
:1039F4005DF9D5F88430E340DB0704D402210B4A97
:103A0400094804F053F905EB840255F824503DB1FC
:103A140021463046AC46BDE870400023126C604736
:103A240070BD00BF0E9D0000908E00002A9D000016
:103A3400036803F01F025B09026004D0012B0348F2
:103A440018BF002070470248704700BF0028845008
:103A5400002584502DE9F04F1546834640F2FF18A7
:103A6400DFF88891DFF888A185B000EB8101594522
:103A740003D1002005B0BDE8F08FDBF80030C3F3BC
:103A8400C322082AC3F3080400F2AA805B0C44454D
:103A940008BF4FF0FF3419F80270222B00F2A38004
:103AA400DFE803F012191F22252B22A1A1A1A13ABC
:103AB40067A1A1A1A1A1A1A1A1A16A7F8285A1A1C0
:103AC400A1888F9295989B00C5F80C45601C5DD128
:103AD4000BF1040BCBE7C5F81445621CF8D00026A3
:103AE4005DE0C5F80845F1E7C5F81045F5E7631C46
:103AF400C5F80845ECD0002604E0661CC5F80C4562
:103B0400E6D0012603A80394FFF792FF0122039B4A
:103B140002FA03F3C36008E0C5F80845002FDCD1BE
:103B2400631CD5D0002606273246DBF80030039408
:103B340003F40040002818BF002203A818BF012680
:103B440001930092FFF774FF039C019B00EB840038
:103B5400D0F80042C3F3412C009A3B0243EA8C03A1
:103B6400134304EA0A04234343EA4603C0F8003239
:103B7400AEE7C5F80C45D1E7C5F86045601CDBF835
:103B84000030A5D0C3F30043002BBAD0012603A80C
:103B94000394FFF74DFF039B06FA03F38360324659
:103BA400C3E7C5F86445E9E7C5F86845E6E7C5F83D
:103BB4006C45E3E7C5F82445621C89D00126002240
:103BC400B3E7C5F8284581E7C5F83045F4E7C5F8FB
:103BD4003445F1E7C5F83845EEE7C5F83C4575E7E7
:103BE4006FF0150046E76FF0850043E7609D000025
:103BF400F0F0FCFF2DE9F74306464FF000080022E1
:103C040001210820FEF75AFC0820FEF727FC7768FC
:103C140035693C684146C4F800852E60D7F80C909D
:103C240001AA484604F07FFA00283FDB019BD9F83B
:103C3400002019791868FFF70DFF002836DB6B7A2E
:103C4400D6F810C0012B03D0032B2DD14FF0100850
:103C5400AB7A032B28D195F80BE0BEF1000F02D00C
:103C6400BEF1010F20D1297A012922D0022924D0C2
:103C7400D1B90A466B687068B3F5164F006800F056
:103C8400898037D8B3F5165F00F087801FD8B3F565
:103C9400966F00F0848012D8B3F5967F00F082808E
:103CA400B3F5167F00F081806FF0850003B0BDE8A6
:103CB400F0834FF480720E21DCE70022FBE7B3F5BA
:103CC400166F75D0B3F5965FEED15E4B3EE0B3F55B
:103CD400E14F70D007D8B3F5615F6ED0B3F5964F5E
:103CE400E2D1594B32E047F612294B45DCD14FF46F
:103CF40000032BE0B3F5613F61D013D8B3F5963FD1
:103D040060D009D84DF6C0294B455DD0B3F5614F5D
:103D1400CAD14FF46B0319E0B3F5E13FC4D14FF0BE
:103D2400EB7313E0B3F5612F51D009D8DFF81C9180
:103D34004B454FD0B3F5E12FB6D14FF0E86305E022
:103D4400DFF80C914B45AFD14FF08053C0F82435C8
:103D5400736848EA01081B6842EA0E0242EA080254
:103D6400C3F86C250CF10403D5E9010183E80300D1
:103D74007B6899073DD505F1180000F0BDFF354B70
:103D840098422AD034480121344A03F08FFF6FF05F
:103D940004008BE74FF41D03D8E7314BD6E74FF40B
:103DA4009E23D3E74FF4A033D0E74FF41C33CDE781
:103DB4004FF41D23CAE72B4BC8E72B4BC6E74FF044
:103DC4006C73C3E7294BC1E74FF46503BEE74FF0BB
:103DD4007063BBE74FF08063B8E7287E04F10C0200
:103DE40004F5907104F081FA01202B7E984000F0D4
:103DF4008FFE0823C4F800353B7A53B9C4F8103158
:103E0400D4F810316B69C4F834350123C4F838355B
:103E140023607B6800209A075CBF4FF48073C4F86A
:103E240004337B68DB0644BF4FF48003C4F80433D7
:103E34002B69C4F844350123C4F84805A360E36042
:103E440034E700BF00B0130000A04E0090D0030080
:103E540040420F000000AD0BB88E0000699D0000C9
:103E64000050270000C0750000F03A0000903A01AD
:103E74002DE9F04104460D46076904F068FC4FF053
:103E84002008B0B92C4B1B789BB16426606804F001
:103E940078F9F0B9012004F01CFA013EF6D10021B2
:103EA400212002F009FBF0E786F31188BFF36F8F3E
:103EB400F5E7EFF31186314688F31288BFF36F8F6D
:103EC400606804F05EF980B986F31188BFF36F8FE0
:103ED400EFE7EFF31186314688F31288BFF36F8F53
:103EE400606804F04EF90028DED03B691D706268FA
:103EF40038691368C3F844050120C3F84805002055
:103F0400C3F82001D3F82051C3F858015268D3F8FC
:103F14005801D20608D5082062681268C2F8000564
:103F24004FF48002C3F8042301229A6081F31188BC
:103F3400BFF36F8FBDE8F08182130020012383401B
:103F440070B5DC430B4AD2E8EF1F01EA0405C2E86E
:103F5400E65F002EF7D14FF4803282400648C0F865
:103F64000823BFF35F8FBFF36F8F0B4214BF012091
:103F7400002070BD141100200050015070B40E498F
:103F840022F07F46D1E90034D01AC31844F100046A
:103F9400C1E90034A6F50013B3F5400F09D2074B6D
:103FA4001B681A0A1B069C19054B42F10005C3E95C
:103FB400004570BC02F016BC8007002018110020D8
:103FC40088070020D9B101230D4A8340D2E8EFCFFE
:103FD4004CEA030CC2E8E1CF0029F7D14FF4803357
:103FE400084A8340C2F80433074BD3E8AF3FC340C9
:103FF400DB0742BF4FF40012044BC3F800217047A3
:1040040014110020005001500C11002000E100E0C8
:10401400C3B202489B001844704700BF405101508E
:10402400024B00F5A87053F820007047005001506F
:104034000D4B1868010A0006BFF35F8F0B4BD3F8D2
:104044000435181841F10001B3F5801F0AD2084B5A
:10405400D3E90023904271EB030303D210F1807083
:1040640041F10001704700BF1811002000500150B9
:10407400880700202DE9F04F85B016461F460446F8
:104084009DF840A0FFF75AFF0190FFF7D1FFB0421F
:1040940071EB070352D23B4B301A67EB0101984294
:1040A40071F100014DD2384B03EB0413D3E9022321
:1040B4009F4208BF964258D04FF48038334908FADB
:1040C40004F8204626F07F4BC1F8488304F0A0F89A
:1040D4004FF00309584604F15005AD00ADB205F1A7
:1040E400502504F5A87305F580350293029A20F053
:1040F4007F4341F82230C1F84483D1F80435244A7F
:10410400C01A033820F07F4090422ED9286868B145
:10411400D1F80435A3EB0B0020F07F40B0F5000F7D
:10412400039322D9204604F073F8039BBAF1000FDD
:1041340007D109EB030009F10109D7E7BAF1000F30
:1041440009D06FF0150520460199FFF73BFF28467B
:1041540005B0BDE8F08F01230E4AA340D2E8EF0F6B
:104164001843C2E8E10F0029F8D107490E9823014A
:10417400C8500F9B01EB04120025C2E9026753608B
:10418400E1E700BF010080006007002000500150FB
:10419400FDFF7F000C1100207FB500254FF0FF309C
:1041A4004FF0FF314FF480321C4C1D4B0226C4F8F3
:1041B4000833C4F848331B4BC4F80855C3E902015B
:1041C400C4F80423C3E906014FF400334FF400128A
:1041D400C4F80433144B0121C4F804631520C3F854
:1041E40080212A46FEF76AF91520FEF737F90123E4
:1041F4000322A36023600D4B28461A600C4B0D4A22
:104204001E600D4BCDE9015500930023FFF732FFEB
:104214003046FFF7EFF8284604B070BD0050015057
:1042240003000F006007002000E100E014110020EB
:1042340010110020FFFF7F00813F00002DE9F04FA7
:10424400394B85B0D3F8042392070BD5D3F8042156
:1042540042B10022C3F80421344AD3F8043113686C
:1042640001331360324D0024A8464FF480362E4F9C
:10427400D7F8043306FA04F919EA030F2ED0012300
:10428400A340DB432B49D1E8EF2F02EA0300C1E846
:10429400EC0FBCF1000FF6D122FA04F3DB0703D4D0
:1042A400254B53F82430CBB1204603F0B1FFFFF780
:1042B400BFFEEFF311832022029382F31288BFF32F
:1042C4006F8F08EB041CDCE902AB504571EB0B016A
:1042D4000BD2029B83F31188BFF36F8F103514B197
:1042E40005B0BDE8F08F0124C2E70020D5E9001332
:1042F4004FF0FF3203934FF0FF3328600A48CCE9B4
:104304000223C0F84893204603F082FF029B83F304
:104314001188BFF36F8F0029E0D0039B52460093AE
:104324005B468847DAE700BF0050015018110020AF
:10433400600700200C1100204051015070B5012489
:104344000C4B186890B1B0FA80F0C0F11F0004FA69
:1043540000F1C943D3E8EF2F02EA0105C3E8E65FA1
:10436400002EF7D1C240D207EBD570BD6FF00B0021
:10437400FBE700BF101100200123054A8340D2E867
:10438400EF0F1843C2E8E10F0029F8D1704700BFCE
:104394001011002030B5431C124C85B005D0844266
:1043A400A8BF0446012CB8BF0124FFF741FE0E4B01
:1043B4000C4DD3E90013401AB0F5000F0FD22218A8
:1043C400AA4228BF2A46002052180849CDE9010014
:1043D400009143F10003FFF74DFE05B030BD2A46BE
:1043E400F1E700BFFFFF7F0080070020813F00004E
:1043F40008B5FFF71DFE024B1B68C01A08BD00BFBD
:104404008007002008B50349034803F04CFF6FF010
:10441400150008BDA29D0000708E000008B5034978
:10442400034803F040FF002008BD00BFBD9D00000D
:10443400708E00002DE9F74300244FF00108254653
:10444400124E30683779D0F81090836801A95B6800
:10445400984700280CD014DB08FA05F31C430135F7
:10446400042D06F10806ECD1204603B0BDE8F08324
:10447400D9F80020019B08FA07F753403B42EED0DD
:10448400EAE703B0BDE8F043FFF7C8BF3C91000082
:104494002DE9F041074688460025104E27FA05F21B
:1044A40012F0010210D128FA05F3DB070ED5317999
:1044B400306803F0E8FE044640B10949094803F0B6
:1044C400F2FE2046BDE8F0810122F0E70135042D1B
:1044D40006F10806E2D10024F3E700BF1C910000B6
:1044E400D29D0000708E00002DE9F047074600269B
:1044F4004FF0010A1F4DDFF88080DFF880902868B4
:1045040047B3404529D0484514BF4FF0E8624FF007
:10451400986229798368D0F810C09C6904B31302A7
:1045240008D5DCF800C00AFA01F313EA0C0F18BF2F
:1045340082F0C06202F0B05302F0B072A0470446A9
:1045440088B1012123460E4A0E4803F0B8FB2046E9
:10455400BDE8F0874FF40012DBE74FF09862D8E72C
:104564006FF05704EDE70136042E05F10805C6D1B6
:10457400EDE700BF3C910000D88B0000C48B000025
:10458400E89D0000708E000038B5EFF311852023FC
:1045940083F31288BFF36F8F0F4C2378BBB90F4B93
:1045A400984202D00E4B98420AD10020FFF79CFF9C
:1045B40018B10C490C4803F076FE00220B4B1A701C
:1045C4000123212223700A48002301F083FC85F390
:1045D4001188BFF36F8F38BD81130020D88B000082
:1045E400C48B0000089E0000708E00008013002021
:1045F400900700202DE9F041334F3B7853B1002060
:10460400FFF772FF28B131493148BDE8F04103F0AA
:104614004ABE3870FFF70EFF04462E4BD3E8EF2F47
:10462400C3E8E14F0029F9D12B4BDFF8B0801A78A9
:1046340042BBD8F80060A64219D0294B66401B68DB
:104644000BB1314698474FF0FF334FF0FF32254806
:1046540001F0AAF9244B1D6835B1043D2B6831469D
:10466400204698476D68F7E71E4801F015FAC8F828
:10467400004054B1BDE8F0414FF4A47200231B483C
:1046840001F028BC00221A70F1E7EFF31186202311
:1046940083F31288BFF36F8F154B1D78012D05D05E
:1046A40086F31188BFF36F8FBDE8F08128461C7034
:1046B400FFF71AFF3D7086F31188BFF36F8F002850
:1046C400F2D00C49A0E700BF80130020249E000014
:1046D400708E00004C110020F001002020110020F9
:1046E40050110020241100203811002090070020D0
:1046F400811300203D9E000070B500250B4E4FF441
:104704000031304603F0AAFD044648B90135042DB2
:1047140006F10806F3D1BDE870400F21FFF7B8BEDB
:104724000349044803F0BFFD204670BD1C910000FE
:10473400559E0000708E0000054BD3E8AF3F00B1DA
:104744000360044811B102685A400A60036070476C
:104754004C1100201C1100202DE9F843384B18603F
:10476400384D394803F095FF2E460027A846F388B4
:10477400304613F0010F0CBF2021102141F4803189
:1047840003F06CFD044630B13049314803F08BFD31
:104794002046BDE8F8830137042F06F10806E6D168
:1047A400064607464FF001092868297983689C6901
:1047B4003CB100234FF40012A047044620B1254920
:1047C400E3E76FF05704FAE72B79013609FA03F3AC
:1047D400042E47EA030705F10805E5D105461E4EF8
:1047E4001E4BC6E9013758F835008368DB6933B1DD
:1047F400012231469847044620B11949C5E76FF0B4
:104804005704FAE70135042DEDD11649164803F093
:1048140092FF0122154B14481A700023002201F064
:1048240025FB21462046FFF787FFFFF703FE104BC9
:10483400D3E8EF2FC3E8E10F0029A9D0F8E700BFC0
:10484400501100203C910000241100206F9E0000B4
:10485400708E00008C9E0000401100208D450000E9
:10486400A79E0000F9450000900700208113002056
:104874004C11002003280A4610B503D9BDE81040A6
:10488400FFF7C0BD074B03EBC001097953F83000B3
:1048940003F0F9FC044618B10349044803F003FD8E
:1048A400204610BD1C910000D29D0000708E0000B7
:1048B4004FF47F03D3F83021D3F83431072A05D1DC
:1048C400023B032B02D8024AD05C70470020704799
:1048D400D79E000008B5FFF7EBFF58B1644BD3F83F
:1048E400202A3AB90D21C3F8201A0121C3F81C1952
:1048F400C3F81C290022D30003F57F03D3F8001367
:10490400013107D0D3F800130132D3F80433202A3D
:104914000B60F0D1FFF7CCFF002840F0A080FFF738
:10492400C7FF40B1534B544AC3F830254FF05023CE
:104934000122C3F858254FF47F03D3F83021D3F86C
:104944003431072A09D1023B032B06D84B4AD35CE6
:104954001BB100224A4BC3F84C25FFF7A9FF50B105
:104964004FF05023D3F80024D10742BF0022C3F8EC
:104974001421C3F818214FF47F03D3F83021D3F85E
:104984003431072A09D14FF05023D3F80024D20739
:1049940044BF6FF00102C3F80024FFF789FF18B188
:1049A4006522334BC3F80C274FF47F03D3F830212F
:1049B400D3F83431072A16D1314BD3F82034002BE5
:1049C40011DA4FF050230322C3F8182501229A600C
:1049D400D3F80421002AFBD00022C3F804210122C9
:1049E400DA60C3F818254FF47F03D3F83021D3F8E5
:1049F4003431072A23D1023B032B02D8214AD35C4A
:104A0400EBB17E221A4B1B49C3F80C27C3F83C298F
:104A14007F231D4AC2F818310023C1F8043EC1F8AF
:104A2400083E01F54821C1F81031C2F82431C2F81A
:104A34002C3102F5FF1202F58052C2F8A032134A5B
:104A4400D2F88C3043F44063C2F88C30104A114BD6
:104A54001168C3F84415D269C3F84C2508BD29224E
:104A6400034BC3F80C270322C3F83C2757E700BFC6
:104A740000400050009003504400EFBED39E00005D
:104A840000200350CF9E00000020005000ED00E005
:104A94000080FF000060005030B50468ACB1B4FA87
:104AA40084F30122C3F11F03DBB29A4024EA020219
:104AB400D0E8EF5FA54204D1C0E8EC2FBCF1000FB1
:104AC400F6D1EAD102480B7030BD0248FCE700BFC2
:104AD4000000AD0B0200AD0B10B50368CB40DB0743
:104AE40010D401238B40026843EA0201D0E8EF4F5F
:104AF400944204D1C0E8EC1FBCF1000FF6D1F2D10E
:104B0400014810BD0148FCE70000AD0B0400AD0BEB
:104B1400014BC3F80405704700700150014BC3F802
:104B24000805704700700150044B1A7922B901221C
:104B340018601A71024870470248704754110020E7
:104B44000000AD0B0C00AD0B08B50A4B1B6833B16C
:104B54000520FDF7A5FC10B90520FDF77FFC4FF0FB
:104B640050230122C3F81825C3F81425C3F880255F
:104B740008BD00BF5411002010B5032845D8DFE854
:104B840000F01802554F00224FF4807301210020D9
:104B940003F1502318601C68012402F150221460B0
:104BA400284A1268002A47D04FF05023C3F8041350
:104BB4002BE04FF05023D3F81814D3F81824C9036A
:104BC40012D502F00303022B05D0012B02D00020E2
:104BD40003F09CFB01234FF050220221C2F8183548
:104BE40008224FF48273D2E7D3F81424D207F1D504
:104BF400D3F81C2402F00302013A012AE7D8114A2F
:104C040012681AB10222C3F8042310BDD3F8042198
:104C1400002AFBD00022C3F80421D3F80431F4E7BE
:104C240018224FF490734FF48071B0E720224FF4B0
:104C340092734FF40071AAE71A68002AFCD0186036
:104C44001B68E2E7541100204FF0502310B5D3F84D
:104C5400002152B10020C3F80001D3F80021012241
:104C6400C3F80823234B1B6898474FF05023D3F80D
:104C7400042182B10022C3F80421D3F80421D3F81B
:104C84001824D3F81824022102F00302012A28D19F
:104C9400C3F818159A604FF05023D3F8202162B15D
:104CA4000022C3F82021D3F820214FF48072C3F8E6
:104CB4000823104B05201B6898474FF05023D3F866
:104CC4002421AAB10022C3F82421D3F824214FF4CB
:104CD4000072C3F80823074B0620BDE810401B6888
:104CE4001847C3F80813034B01201B689847D2E701
:104CF40010BD00BF5411002001460148FFF7CCBE8F
:104D0400000100200123044A83400146C2F808350B
:104D14000248FFF7E1BE00BF00700150000100200F
:104D2400036803F01F025B09026004D0012B0348EF
:104D340018BF002070470248704700BF0028845005
:104D440000258450034A4309D35C00F01F00184433
:104D5400C0B27047DB9E000070B50546FFF7F2FF56
:104D64000C4C083034F810300E46DA0508D5C3F37D
:104D7400432304EBC302284654F83330526898475F
:104D8400A3682BB131462846E268BDE87040184755
:104D940070BD00BF0401002008B5FFF7D3FF034B2B
:104DA400083033F81000400B08BD00BF0401002098
:104DB40008B5FFF7C7FF034B083033F81000C0F302
:104DC400400008BD0401002008B5FFF7BBFF034BFA
:104DD400083033F81000C0F3401008BD040100206F
:104DE400034611F0010010B5CCB20BD1A207C4F3F5
:104DF40040000DD5074A106A58601062003818BF89
:104E0400012005E004490A6A1A600A62002AEDD00A
:104E140010BD00BF002884500025845010B5FFF752
:104E240091FF124A083032F81030D9051CD5C3F36B
:104E3400432123F4F85322F81030002002F10E0429
:104E440034F8023F13F4807F03D0C3F34323994221
:104E54000AD001303028F3D1002342F8313004481D
:104E6400BDE81040FFF738BE10BD00BF04010020AC
:104E74007C010020F0B505460020012604460746C3
:104E84008C420BD1114BD3F87C2132B10022C3F8F0
:104E94007C21D3F87C3140F00040F0BDE3B29B00AC
:104EA40003F580729B0806FA03F31D420BD002F14E
:104EB400A04202F55042D2F800C0BCF1000F02D06B
:104EC4001760126818430134DAE700BF00D00050BD
:104ED400F7B506460846FFF735FF1A4F00F10805F7
:104EE40037F815300C46DB072AD5304603F019FB9A
:104EF4002046FFF769FF58B12046FFF74DFF002217
:104F0400316800B201EB8003C3F81025C3F8102503
:104F14002046FFF783FF002301A827F815300194EA
:104F2400FFF7FEFE019B00EB8300D0F80022064B46
:104F3400134043F00203C0F80032044803B0F0BD4C
:104F44000348FBE704010020F0F0FCFF0000AD0B78
:104F54000400AD0B2DE9F0431646804685B00846A3
:104F6400FFF7F0FE0D463168044609B32846FFF703
:104F74001FFF18B12846FFF727FF10BB00230DF1D0
:104F84000F02CDE900338DF80E308DF80F3028462E
:104F94000B460DF10E0103F06CFA484A04F10801C6
:104FA40032F8113023F0020343F0010322F81130E8
:104FB40073687BB328461F785968FFF7F9FE10B170
:104FC400E9B13F4829E03D4A04F1080032F81030C5
:104FD40023F02003DB04DB0C22F8103079B1032F1B
:104FE400EFD87168D1F804E0D8F800109EF800C03A
:104FF40001EB8C01A7B9C1F81075C1F810752F4ADF
:1050040004F1080132F8113023F01C0343EA87034A
:1050140022F81130B3683BBB2A4805B0BDE8F083E1
:10502400D1F810E543EA4C332EF0030EC1F810E535
:10503400D8F8001043F0200301EB8C0EDEF81015B5
:1050440022F8103021F44F3121F44071CEF81015BC
:105054002902DEF8108501F47C5141EA074141EA56
:105064000801CEF81015CAE72846D3E90067FFF710
:10507400D5FE002ED0D0114DD5E90023964203D1A0
:105084009F4201D1002209E00F480DF10F01FFF703
:1050940003FD0C4B9842C0D19DF80F2005EBC203D1
:1050A40008345F6035F8143045F8326043EA42232F
:1050B40043F4807325F81430AEE700BF04010020E8
:1050C4000400AD0B0000AD0B7C0100202DE9F04382
:1050D4000C46804685B0204611461D46FFF732FE39
:1050E400064629B32046FFF763FE18B92046FFF7AA
:1050F4006BFE18BB334F06F1080937F8193013F06B
:105104001C0F02D04B78012B18D001238DF80F30DF
:1051140000234A1CCDE9001320468B1C0DF10F011E
:1051240003F0A7F937F8193043F0030327F81930CF
:10513400002D44D02046FFF73BFE18B9224805B0A5
:10514400BDE8F083002295F800C0D8F800301D4F68
:1051540003EB8C03C3F81025C3F8102506F10802ED
:1051640037F812104FEA8C0E21F02001C904C90C43
:1051740027F812106E7816B3D8F80000AD78704492
:10518400D0F81035360423F4991323F4F853C0F8F7
:105194001035230203F47C5306F440362D05D0F871
:1051A40010E5334305F480152B4341EA4C3143EABF
:1051B4000E0341F02001C0F8103527F812100348FF
:1051C400BDE700BF040100200400AD0B0000AD0BDF
:1051D400014BC3E9021270470401002010B50846D0
:1051E4001446FFF7F1FD50B10846FFF7ABFD054B40
:1051F400083033F8103004485B0B237010BD0348AB
:10520400FCE700BF040100200000AD0B0400AD0B5F
:1052140070B5154D064695F880401CBB21466022AA
:1052240005F1100003F060FC214630682E6F8E42B9
:105234000ED10023C0F87C31D0F87C3140F3073024
:10524400FDF70CF90123094885F88030AB6770BD80
:10525400CBB29B0003F580727C2B04BF845083582F
:105264000131E4E70248F2E7040100200000AD0B3D
:105274000C00AD0B034B93F88000003818BF0120DD
:10528400704700BF040100200148FFF725BC00BFA0
:10529400780100200148FFF7FFBB00BF7801002020
:1052A40073B503681646D3F804230546002AA8BF3D
:1052B4004FF000420846A8BFC3F804230C46FFF78A
:1052C40083FD00B30846FFF773FD0146D8B92046B5
:1052D400FFF762FD04B2A4000346286804F5807257
:1052E4008150296882582144D1F8102542F00102E6
:1052F400C1F810252EB10122296802FA03F3C1F87E
:10530400043302B070BD2046FFF71CFD0E4B08307D
:1053140033F81030C3F38203042B11D0052B11D0C2
:1053240001A80194FFF7FCFC019A0369D34003F040
:105334000103991C204602B0BDE8704003F0E2B8B6
:105344000321F7E70221F5E7040100202DE9F04FDE
:10535400684BDFF8A481D3F80403D8F87010C0B206
:1053640089B040F00040FFF785FD051E2FDAC246E4
:1053740000235AF87C1F06A8CDE90633FFF730FD59
:105384004FF0000B5D4B0DF118090193019A12F8CF
:10539400013B0192DA081AF8022003F0070322FA0B
:1053A40003F3DA071CD409F10409BBF1000F14D08C
:1053B400D8F870104FF00040FFF75CFDD8F87C106F
:1053C40006A8FFF70DFD0028DAD125F000450124D9
:1053D400002D76D109B0BDE8F08F4FF0010BD5E771
:1053E400474B5B440293D9F800100029DBD091FAB3
:1053F400A1F1B1FA81F1029B1C7841EA44142046E0
:10540400FFF7A0FC083038F81070C808BB080393F5
:10541400012319F8002001F0070103FA01F122EA3F
:10542400010209F8002005A80594FFF779FC059A04
:10543400039B803250F82220C7F382065B0737466D
:10544400C2F3014222D520463946D6B2FFF784FC86
:1054540005A80594FFF764FC059B803350F82330BE
:10546400C3F301439E4207D10021204603F04AF8CA
:105474003146204603F046F805A80594FFF750FC92
:105484000122059B02FA03F30362ACE7022A0CD162
:105494000321204603F036F806F00503012BEBD177
:1054A40039462046FFF758FCE6E7022120460392DE
:1054B40003F028F8032EF3D0039A032ADCD1022E3A
:1054C400EDE795FAA5F3B3FA83F304FA03F29B002C
:1054D40003F1A04303F55043D3F81005D3F8101596
:1054E400C0F30520C1F3014125EA0205FFF734FCAE
:1054F4006EE700BF00D0005004010020EB9E0000C6
:10550400EB9E000070B5084C0E462379154643B94E
:105514002A20FCF7A3FF0123044823712660A56019
:1055240070BD0348FCE700BF5C1100200000AD0B18
:105534000C00AD0B002330B50D4A50F8234003F5A1
:10554400A2710133102B42F82140F6D10023084AFE
:1055540000F13C0103F5B27451F8045F0133102BE0
:1055640042F82450F6D1D0F88030C2F8043330BD6C
:1055740000A002500123024A8340C2F8043370475A
:1055840000A002500123024A8340C2F80833704746
:1055940000A00250F8B5012600270B4B0B4DD3F8A1
:1055A4000C4304B9F8BD94FAA4F0B0FA80F006FAFA
:1055B40000F324EA0304064B82009F502B68002B5F
:1055C400EFD0A9689847ECE700A002505C110020D6
:1055D40000A1025010B50446FBF7F0FE0348012178
:1055E400034A02F063FB204602F0D3FFA08E0000C2
:1055F400ED9E00002DE9F84304460D4600AFEFF39D
:105604001188202383F31288BFF36F8F0428294A5B
:1056140098BF294BE9468AB09668117C98BF53F825
:1056240020306A4688BF254BC2E9073140F2013376
:1056340023489384234BC2E9050442F8103F002316
:105644004FF431512048FBF79DFFCD4645B1EB693E
:10565400C3F3080323B101211C4A1B4802F026FBB3
:105664002EB1304603F07CF808B1037803B918482A
:10567400E9468AB06A46174BD061C2E9053640F262
:1056840001331384144B42F8103F00234FF411519B
:105694000D48FBF777FF2946CD462046FFF79AFFD2
:1056A40088F31188BFF36F8F3046FCF759FEBD466F
:1056B400BDE8F883681100205C910000FC9E0000A6
:1056C400129F000005000001A08E00003A9F000018
:1056D4000A9F00005B9F00000400000138B5094BDD
:1056E40053F82040013053F82050A54200D838BD6B
:1056F400636823B1204602F054FF0834F5E72368B9
:105704009847FAE770910000012270B5294B0320F5
:1057140086B01A70FFF7E2FFFCF7EEF90420FFF7FA
:10572400DDFF254C254D2646AE4204F1300410D34E
:1057340000F004FE204C224EAC4226D300F012FEB0
:10574400FAF7A0FE1F4A137B23F00103137306B07C
:1057540070BD54F80C3C059354F8103C049354F871
:10576400143C039354F8183C029354F81C3C0193E2
:1057740054F8203C009354E90A2354E90C0100F046
:10578400AFFB54F8303C5E65CDE7D4E90A23B3F1AE
:10579400FF3F08BFB2F1FF3F05D052EA0301206882
:1057A40003D102F0DFFF3034C6E73146183000F091
:1057B4009FFFF8E782130020508E0000508E0000F7
:1057C400978800004008002008B50348034A0021D8
:1057D400121A02F0FEFE08BDA0020020841300206D
:1057E4000023012270B586B0CDE904230F22019372
:1057F400CDE9023214234FF4A0720E4D0E4E03FB7A
:1058040000550E4906EBC016044602FB00110C4B72
:105814003046009500F064FB737B2C7423F0040382
:105824007373084B013403EBC423EE606B6006B062
:1058340070BD00BF68110020C0070020881E002032
:105844007186000088160020BFB50020FFF746FFD0
:105854002D4B03F5006282F3088883F30A88002441
:10586400E0232A4D2A4E85F82230EC772C766C768C
:10587400AC7685F820406B6A264F43F4E0236B62D4
:1058840085F82340FCF7EEFCFCF788FE4FF0FF336D
:10589400AB62EB62FDF726F8FCF7A4FEFBF7FEFC17
:1058A40040F201121C4B1D4D9A81B360C3E91844A8
:1058B400DC6602F062FE0120FFF710FF0220FFF712
:1058C4000DFF00F06FFD164B75610593012315491B
:1058D4004FF48062CDE9034328463B46CDE90144B9
:1058E400009400F0FDFA06466A7B284622F0040282
:1058F4006A7302F073FF2046FFF772FF3A4631469F
:105904002846FCF729FE00BF8816002000ED00E0C1
:10591400681100200D570000C00800204008002036
:10592400BD9F0000C81F0020002038B5054C064D5F
:10593400AC4200D338BD204602F04FFE0028F9DB0C
:105944001C34F5E73C0200203C02002073B50C46F1
:10595400EFF31181202585F31288BFF36F8FC5689B
:105964005DB125602B68C3608369013383610020C6
:1059740081F31188BFF36F8F11E052EA030603D15C
:105984006FF00B002560F3E7CDE9002302460830F1
:1059940000F020FC18B9034B9B685B69236002B0DC
:1059A40070BD00BF681100202DE9F341044617467D
:1059B4001E46EFF31188202383F31288BFF36F8F01
:1059C400C368334A7BB180689168884219D057EA2A
:1059D400060318D188F31188BFF36F8F6FF00F009F
:1059E40002B0BDE8F081916891F90E100133E360D3
:1059F40093682161A36088F31188BFF36F8F00203F
:105A0400EEE72169F2E791F90E1090F90E306FF08C
:105A14007E029942A8BF19469142B8BF11468B42F3
:105A24002DDD02F02EFE054622464146CDE90076E4
:105A3400184800F0CFFB0028E1D0EFF311862023B3
:105A440083F31288BFF36F8FA068D0B123682169F4
:105A54009C420AD04BB193F90E309942A8BF194623
:105A64006FF07E039942B8BF194602F00AFE40B1B6
:105A74003146084800F01EFC6FF00A00B0E700252C
:105A8400D2E7002DF4D186F31188BFF36F8FF3E7CB
:105A9400681100208313002038B58368044663B37B
:105AA400194A926893422BD1C368012B03D9013B55
:105AB400C360002038BDEFF31185202383F31288DF
:105AC400BFF36F8F0169806802F0DBFD204602F0AE
:105AD400FAFEA06058B190F90E202261002282677C
