:020000040000FA
:10000000B84E0020312F00008D0201001D2F00008E
:100010001D2F00001D2F00001D2F00001D2F0000B0
:10002000000000000000000000000000DD300000C3
:100030001D2F0000000000009D3000001D2F00005B
:100040006132000061320000613200006132000064
:100050006132000061320000613200006132000054
:100060006132000061320000613200006132000044
:100070006132000061320000613200006132000034
:100080006132000061320000613200006132000024
:100090006132000061320000613200006132000014
:1000A0006132000061320000613200006132000004
:1000B00061320000613200006132000061320000F4
:1000C00061320000613200006132000061320000E4
:1000D00061320000613200006132000061320000D4
:1000E00061320000613200006132000061320000C4
:1000F00061320000613200006132000061320000B4
:1001000061320000613200006132000061320000A3
:100110006132000061320000613200006132000093
:100120006132000061320000613200006132000083
:100130006132000061320000613200006132000073
:100140006132000061320000613200006132000063
:100150006132000053B94AB9002908BF00281CBF0A
:100160004FF0FF314FF0FF3000F00CB8ADF1080C4C
:100170006DE904CE00F008F8DDF804E0DDE90223C3
:1001800004B07047704700BF2DE9F04786468C46A3
:100190000846089E154674461946002B40F0C1805B
:1001A0008542B2FA82F245D94AB1C2F1200300FA7F
:1001B00002FC954094402EFA03F343EA0C0C4FEAFC
:1001C000154EA8B2230CBCFBFEF80EFB18CC08FBA6
:1001D00000F943EA0C43994528D9EB1808F1FF3799
:1001E00004D2994502D9A8F102072B44A3EB0903D5
:1001F000A4B2B3FBFEFC0EFB1C330CFB00F044EA84
:100200000344A04214D92C190CF1FF3304D2A042AC
:1002100002D9ACF102032C44241A43EA07401EB170
:10022000D440002334607360BDE8F0874746DDE7C3
:100230006346F1E792BB431B01214FEA154EAFB273
:10024000200CB3FBFEFC0EFB1C330CFB07F840EA52
:100250000343984561D9EB180CF1FF3004D298455F
:1002600002D9ACF102002B44A3EB0803A4B2B3FB08
:10027000FEFC0EFB1C330CFB07F744EA0344A742C9
:100280004DD92C190CF1FF3304D2A74202D9ACF19D
:1002900002032C44E41B43EA0040C0E7C2F1200300
:1002A0009540944020FA03F12EFA03F34FEA154EDD
:1002B0009040AFB20343B1FBFEFC0EFB1C10190CC7
:1002C0000CFB07F841EA0041884522D969180CF176
:1002D000FF3004D2884502D9ACF102002944A1EBD9
:1002E00008019BB2B1FBFEFC0EFB1C110CFB07F7D7
:1002F00043EA01439F420ED9EB180CF1FF3104D2BF
:100300009F4202D9ACF102012B44DB1B41EA0041C0
:1003100093E76046E3E76146F7E76046A4E7634694
:10032000B8E7834206D916B9002108467CE7C6E93A
:1003300000E0F9E7B3FA83F78FB9834201D372453E
:1003400008D8BEEB020460EB030301209C461EB9F3
:10035000002169E73846FAE7C6E9004CF8E7C7F13B
:10036000200CBB400EFA07F522FA0CF42EFA0CF121
:10037000BA401C4320FA0CF3B8404FEA1449014339
:100380001FFA84FEB3FBF9F809FB18300B0C08FBCD
:100390000EFA43EA00439A4540D9E31808F1FF30CA
:1003A00004D29A4502D9A8F102002344A3EB0A0320
:1003B00089B2B3FBF9F809FB183308FB0EFE41EADA
:1003C00003418E452CD9611808F1FF3304D28E45C4
:1003D00002D9A8F10203214443EA0040A1EB0E0137
:1003E000A0FB02984145CE46434602D306D14D4577
:1003F00004D20138B9EB020E68EB0403002EA7D03B
:10040000B5EB0E0261EB030101FA0CFC22FA07F3D3
:10041000F9404CEA0303C6E9003199E74046C5E7D5
:100420004346D9E710F8012B11F8013B012A28BFF8
:100430009A42F7D0D01A7047034611F8012B03F8FF
:10044000012B002AF9D17047034613F8012B002A2B
:10045000FBD1181A01387047014B1878704700BF5C
:100460006823002008B504480EF0F9FBBDE80840F9
:10047000012011F08ABC00BF6847010008B521B116
:10048000BDE8084005480EF0EABB05480EF0E7FB62
:10049000BDE80840012011F075BC00BF8247010093
:1004A0009E47010038B5CB070ED500F00105284660
:1004B00000F026F9054B1D7035B1054A1368042B71
:1004C0008CBF00230133136038BD00BF68230020B8
:1004D000B8170020F7B51F4F3A686846C72A02F1DF
:1004E000010308BF64233B6000F07AF9BDF80060A7
:1004F000BDF80250BDF804402A462346314616484E
:100500000EF0ADFB00214FF400400EF09EF8304697
:1005100000F018F9002140F6CD400EF096F828467C
:1005200000F010F9002140F6CD400EF08EF8204684
:1005300000F008F9002140F6CD400EF086F8074B98
:10054000186800F0FFF840F6CD4000210EF07DF86D
:10055000C2E700BF30020020A9470100B817002001
:1005600037B500F00FF90321284A29480FF079F92F
:100570000AF0FAFC034640B1264A012124480FF054
:1005800079F94FF0FF3003B030BD23480AF01CFD6D
:10059000044628B905F038F8034650B11F4AECE785
:1005A00001461F480EF05BFB21461E480EF057FB2C
:1005B000E7E71D4806F054FB1C4800F097F8014699
:1005C00008B11B48F2E7012503211A4A10480FF031
:1005D00048F90222184B19491948009505F0ECFC1E
:1005E000044610B1174A0346C7E70321164A0848D4
:1005F0000FF037F9013404F0010100200AF072FD18
:100600004FF4004000210EF020F8F3E7C34701004B
:100610008C3C0100E4470100A50400003B480100B8
:10062000FF4701001E4801001002002028020020A0
:100630005B48010078480100183E0100203E01009F
:10064000340200208F480100B54801008B1E59423A
:100650005941014B197070476A2300204B1E5942C3
:100660005941014B197070476B23002008B5012BCD
:10067000BDF808100CD171B90A4B1B680BB90120E9
:1006800008BD1078012809D800F001009847F6E766
:100690006FF00C00F4E76FF00600F1E76FF0120066
:1006A000EEE700BFD41700202DE9FF411F460D4B98
:1006B000054658680C46164680B1D1F80C80804734
:1006C000094B324618700123CDE90183BDF828306B
:1006D0002146009328463B4610F062FF04B0BDE877
:1006E000F08100BFD41700206923002020B1034B04
:1006F00002681A6042685A6000207047D4170020D0
:1007000007B50C4B8DF807001B7883B10A490B4BDA
:1007100000204B600A4BC8608B600DF107030B6132
:1007200001238B8208F0D4F903B05DF804FB6FF06D
:100730000C00F9E76A230020BC170020583E010096
:100740004FE6000000B50D4B89B01B78019093B1C6
:100750000021182202A813F08FF8094B0020039300
:1007600001AB0493042302A9ADF8143008F028FB70
:1007700009B05DF804FB6FF00C00F9E76B23002073
:10078000BC3E010038B50025124C54F8060C12F09E
:10079000D9F928B910480EF062FA4FF0FF3038BD91
:1007A00014F8013C63B154F8060C836821461B68B9
:1007B0009847021E07DA294608480EF050FAECE77F
:1007C0006FF08502F7E70135032D04F11404DCD145
:1007D0000020E4E7EA3E0100784901009949010060
:1007E0002DE9F04F142200268BB0314607460DEB61
:1007F000020013F041F80DF10E030793022337486E
:100800000893B146B0460EF02AFA3546B2464FF08C
:10081000140B334C637953B10122237902FA03F3A9
:100820000693237C8DF82430637C8DF82530206876
:10083000836805A95B689847011E10DA29480EF005
:100840000EFA0135032D04F11404E3D13846A7F85C
:1008500000907E80A7F804800BB0BDE8F08F45B90A
:10086000D1466279BDF90E3042B91F480EF0F7F952
:10087000E7E7012D0CBF5646D046F2E7E27918486B
:10088000042A08BF22680BFB05000ABF9268E189B1
:100890001189807A5943227C800644BF02F1FF32DD
:1008A000D2B20491A07904A90093019208F0E0FC6F
:1008B0000028009B08D1049B019A13419BB22DB9DB
:1008C000994601251434A5E7CFDBF7E7012D03D1C5
:1008D0001E46022514349DE79846B7E7BB49010040
:1008E000E43E0100C9490100DE4901002DE9F04F55
:1008F00091B0009302F004030293C2F3C2030133E8
:10090000840705460E46DDF868900392059340F093
:10091000BB81041D30B1072909D86FF01B0011B04D
:10092000BDE8F08F01F00706341DC6F10806009BF4
:100930004FF000084FF0040A591E4FF0FF334746AE
:100940000193C3465346CDF810800DB1009A226042
:100950000598002800F3E8809848009A824203D363
:1009600097488242C0F0E080039AA4EB050E9207FC
:100970004FEA9E0000F103810F2F00F2B180002D9D
:1009800000F0058107F140020DEB020C019A0CF812
:10099000200C0CF8102C049801300490E7E07A2821
:1009A0005DD84B280ED8472859D829282DD8252876
:1009B00052D054D820287AD02338D0F1000B4BEBFA
:1009C000000B74E04C382E2849D8DFE800F070485E
:1009D000484848484848484848484B484848484894
:1009E00048484859484B4B595959704B6D487048C5
:1009F000184B184848827F4B48484B487F000020DE
:100A00004FF0000B4FF0040A38E001222A38C0B240
:100A100002FA00F010EA0E0F49D110F0625C2FD1FB
:100A200010EA020B43D06046013C5444B4FBFAF494
:100A30000AFB04F4002D61D0A3EB050CA444B445DB
:100A40003FF66BAF002868D1042B47D159F8043B1F
:100A50002360042304342AE0019A013A01924FF002
:100A6000000B24E011F8010C6C2834D1002011F89F
:100A7000023C83466C2BC5D14FF0080A5346D3E79E
:100A800009F1070929F00709073424F00704F9E8F8
:100A900002AB35B106982044B0423FF63EAFC4E900
:100AA00000AB4FF0000B08344FF0080A534611F822
:100AB000010F002878D0BBF1000F7FF470AF25281C
:100AC000F5D14FF0010B019B013301934FF0040A64
:100AD000ECE7584694E700208346A5E7082B02D0B0
:100AE0006FF015001BE709F1070929F00709F9E87C
:100AF0000223C4E9002308230834D8E768B9042B8B
:100B000002D109F10409A4E7082BE9D109F1070989
:100B100029F0070909F10809EDE7059A013A05925C
:100B200059F8042B009210E7039A900720D54FF054
:100B3000010CA4EB050E4FEA9E00BEF5007FCFD25C
:100B40000F2FCDD8F5B107F140020DEB020E019A3F
:100B5000C0B20EF8200C0EF8102CBCF1000F3FF4C0
:100B60001AAF60F07F000EF8200C08F10108013781
:100B7000C5F108024FF6DA7E0434069297E74FF08B
:100B8000000CDAE7BCF1000F01D00136EFE7029864
:100B900002360028EBD10098CDE90631FFF754FC6E
:100BA000DDE906310644E2E7631BB3F5806F97D2B7
:100BB00045B9A6F10804E018B1E600BFAC38010061
:100BC000A86F0100029A9B0828602B709DF81030D6
:100BD000C2B1EB7085F80280B8F1000F05D0002299
:100BE00008A8C5F1010C97420ED14FF0000AC5F1DB
:100BF00001030DF1200901930DF1300B574512D17E
:100C0000601B8CE66B70E5E710F8013B190608D510
:100C100004EB0C0EB64503F07F033FF67EAE04F8FE
:100C2000013B0132DFE7B8F1000F03D099F9002052
:100C3000002A17DB029BD3B11AF80B2004F8012B12
:100C40000022019B98182044B0423FF666AE99F806
:100C50000000009904F8010B2046039212F0FFFDFA
:100C6000039A14440AF1010A09F10109C6E799F847
:100C7000002055F822300093029B009845F822305E
:100C8000FFF7E2FB421CDCE76FF00D0047E600BF18
:100C90002DE9F04F97B000AFD7F880B03B62CBF3AF
:100CA000C0030446894690F802A0FA62BB6141B9CC
:100CB000457800780AEB800020444D4517D8A0EB1A
:100CC0000409E378FB61BAF1000F02D01BF0010FB9
:100CD00016D1FB6953BBFB6A1BB1494620463A6AF1
:100CE00098474D4628465C37BD46BDE8F08F461C08
:100CF0003046FFF7A9FB0130304409F10109DCE778
:100D0000626823787A62FA6A9900796104EB830158
:100D1000002A40F001810E464FF000084D4601EBDD
:100D20000A094E454CD101EB0A0610E01BF0020FF8
:100D3000D1D023789A007A61626804EB83017A62E9
:100D4000FA6A002A77D14D46904601EB0A061BF05D
:100D5000050F0CBF02230123FB62FB6906EB430A6C
:100D60000BF00203BB625645BCD016F8021B16F806
:100D7000013C54F82390AF4B994502D3AE4B9945B3
:100D800036D3BB69002B40D0786A0DF03FFF0028B6
:100D90003BD0E9468AB06A46A84B53617B6AC2E9F8
:100DA00006314FF400731384A54B42F8103F002323
:100DB0004FF41251A34801F0BFF8023DCD46D2E7EF
:100DC00016F8013BF96254F82300FFF73DFBD7F812
:100DD0008430F96A01304BB1D7F8883098453EBF6E
:100DE000D7F8843023F8180008F10108054498E783
:100DF000BB6923B1786A0DF009FF0028C9D11BF047
:100E0000010F05D1FB6AED1AADE7BB6A002BAAD032
:100E10004846FFF719FBD7F8843053B1D7F888302C
:100E200098453FBFD7F88420431C22F8183008F1BA
:100E30000108054497E7BAF1000F73D01BF00406D0
:100E400073D0D046002607F1480052463B61B96294
:100E500012F005FDB96A3B6901EB0A02BA62FA6950
:100E6000F9695200FA60BA6A02EB41023A610BF08A
:100E70000202BA603A69B96A8A4258D162781BF0B4
:100E8000020F18BF00217A6208BF4FEA5801B2185A
:100E90001BF0010FD2B240F09F801BF0040F14BF73
:100EA00040460020BB616270A070E17020463A6A43
:100EB0007969FB6A9847051EFFF614AFBB69414686
:100EC00023707B6A3A6A6370FB6984F802A0E3705E
:100ED00007F14800FB6A9847B0F10008C0F2B480FF
:100EE0007B69A9EB0A01C91AFB683A6AC91AD7E9F2
:100EF0000A0398470028C0F2A9804FF0000BA844CD
:100F000008EB000507F1380AB34567D300213A6AB8
:100F10000846FB6A9847E5E656464FF0000807F199
:100F2000380092E75646D04696E7B04694E7BA6A4C
:100F300012F8021B12F8015CBA6254F825003D4A0F
:100F4000904202D33C4A90421ED3BA6932B1786AC9
:100F50007B600DF05BFE7B6800288BD1BA6802BB1A
:100F600008F1280207F1300C08F10100944407F160
:100F7000580208F1020852FA80F00CF8101C5FFACF
:100F800088F800F8105C75E7BA693AB1786A7B6056
:100F90000DF03CFE7B6800287FF46CAF1BF0010F66
:100FA00009D006F1280207F13000711C161806F866
:100FB000205CCEB25EE71BF0040F3FF45BAF08F19C
:100FC000280207F1300008F1010102EB000808F8DF
:100FD000105C5FFA81F84DE7002063E71BF80A30E8
:100FE00054F8239087F83730D7F88430FBB133F8C2
:100FF0001B8001213A6AFB6A07F1370098470028F5
:1010000024DB0544B8F1000F06D14846FFF71CFA6F
:1010100000F101081FFA88F8414648463A6AFB6A1F
:101020009847002812DB05440BF1010B6CE7D7F859
:101030008480DEE7AC380100A86F0100FC490100A4
:1010400004000001FC3C010045464BE6054649E62C
:10105000014B1860704700BF9002002080B5054624
:101060000E46174698460CF08BFB034612F014FC14
:101070000446DFF81890424649F8003039463046B9
:10108000A84754F8090001F0BBFF00BF08000000AA
:101090002DE9F047058B04462807904611D4022914
:1010A00005F0070540F0CC8020460EF046F878B1F8
:1010B0000138218B042811D8DFE800F0C2106D85BB
:1010C000950001290CBF45F0100545F0200525834A
:1010D00088F31188BFF36F8FBDE8F08701F0070A2E
:1010E000AA4500F0A5800027B9463E46A368002B1C
:1010F00000F0BC8041F00801218388F31188BFF320
:101100006F8FA168002900F0BA800D68002900F0F7
:10111000B680334652462046D1F80480C047002DA1
:1011200076D02B6829461D46F0E701F007035A1FC9
:10113000012A1BD8002221F00701062B276889B25B
:10114000C4E9002209D13B4603E0628B013262838D
:101150001B68002BF9D141F00201204621830DF0DC
:10116000ECFF00287AD041F0200176E0042B0AD170
:1011700021F0070189B2204621830DF0DEFF10B176
:1011800041F020012183218B01F0070AAA454FD0AD
:101190000027B946AAE7236921F0070141F00601BB
:1011A000062DD3F8009021832DD1B9F1000F3FD047
:1011B00041F00801218388F31188BFF36F8F204627
:1011C0003949C84729E021F00701236941F00401AA
:1011D00089B2042DD3F804902183E6D000274FF084
:1011E000040A3E4682E721F00701236941F0050128
:1011F00089B2052DD3F808902183D6D000274FF06F
:10120000050A3E4672E700274FF0060A3E466DE7A4
:101210002B4687E7B9F1000FD1D1EFF311882023D6
:1012200083F31288BFF36F8F238B23F0080323838C
:10123000258BEA062ED525F01003238305F007053C
:101240006669218B002EBFF670AF00232768C4E9C2
:10125000003321F0070141F001012183218B4FF080
:10126000000901F0070AAA457FF440AF002F9CD087
:1012700041F00801218388F31188BFF36F8F002F9D
:10128000C8D03D6839463346524620460DF081FFAE
:101290002F46F4E7AB067FF51BAF25F02003238331
:1012A00005F0070500E700BFBFF1000010B530B939
:1012B0000B480C490EF04CF86FF0150010BD836818
:1012C00033B9074808490EF043F86FF00400F5E71A
:1012D0001B6813B1BDE8104018471846EEE700BF81
:1012E000143D0100B04A0100C14A010010B530B9F7
:1012F0000B480C490EF02CF86FF0150010BD8368F8
:1013000033B9074808490EF023F86FF00400F5E7F9
:101310005B6813B1BDE8104018471846EEE700BF00
:10132000143D0100B04A0100C14A010070B508B186
:1013300001B132B90B480C490EF00AF86FF01500F4
:1013400070BD84680CB1E56835B9064807490DF0F1
:10135000FFFF6FF00400F3E741F8040BE368BDE81A
:1013600070401847143D0100DF4A0100C14A0100E6
:1013700010B5044630B9104810490DF0E9FF6FF080
:10138000150010BD006830B90B480D490DF0E0FFA5
:101390006FF00100F5E783680BB11B6933B90648AC
:1013A00008490DF0D5FF6FF00400EAE7616898473F
:1013B0000028E6D12060E4E7143D01000B4B01005A
:1013C0001C4B0100C14A010070B51346044630B9F8
:1013D000104811490DF0BCFF6FF0150070BD00689A
:1013E00030B90C480D490DF0B3FF6FF00100F5E77F
:1013F00082680AB1956835B9064809490DF0A8FF19
:101400006FF00400EAE70A46AC466168BDE8704048
:10141000604700BF143D01000B4B01001C4B010055
:10142000C14A0100034A13680BB9526813600020D7
:10143000704700BF9402002030B50C460E4985B0BD
:101440000291D0F8AC110546CDE9003100F1E00180
:101450004FF0FF3320460AF0E3FE50B9012384F831
:101460006430D5F8A83123B1204605B0BDE830403E
:10147000184705B030BD00BF49F4000038B50C4630
:10148000114605460DF0E2FF034638B928460449E7
:101490000DF0DCFF03460020236038BD0120FBE790
:1014A000AF6E01002DE9F04F0123814605694668C2
:1014B00087B005F55977D7E8EF2F002A03D1C7E8A1
:1014C000E13F0029F7D10CBF1A46002240F0B4805A
:1014D000B368B16A05F5E4781C1F10460EF03AF8BF
:1014E000844272D8013A00F0A180B2FA82F24FF041
:1014F0000044D44072682046073222F00302C5F847
:101500006022B16A0EF026F8C5F86402B36A40465C
:101510006343033323F0030302EB4302230103EB92
:101520004403093323F0030303EBC403C5F8582233
:101530001A440832C5F854227368C5F85C42C5F8ED
:1015400050323F4BC5E9A963D9F80030C5F8FC31EA
:10155000316800F0DFF90446002834D1D9F810B022
:10156000D9F804A0D9F800300BF530790590049330
:101570004846DAE90734012B08BF103C11F048FD5A
:10158000DAF824002F4904AB01EB80214FF480628C
:101590004846009323460BF009FD2B490BF52C70B0
:1015A00011F0E0FCDAE9050183685C684CB15B4648
:1015B000264AA047044630B9DAE9050183681B6969
:1015C0002BB96FF05704002129E0013285E7012291
:1015D000984704460028F6D11D4B2846C5F8A83187
:1015E0001C4BC5F8AC311C4B0393D5F81032029359
:1015F000D5F80832CDE90083D5F86832B26AD5F85B
:10160000601300F04FF904460028DCD105F1E0003A
:101610000AF0B6FE0028C5F868030ADB0221384646
:101620000DF048FF204607B0BDE8F08F6FF00B04C7
:10163000C9E76FF01504C6E76FF07704F2E700BF63
:101640009FF400002028002085F4000079F40000B9
:101650005D1600002BF60000E5F4000013B504460B
:1016600040B100230122CDE90032074BD0E9091235
:101670000AF08AFDA36E1B6823B1E06E02B0BDE8DC
:101680001040184702B010BDAF6E010013B50446FC
:101690000846216901F55971D1E8AF1F022910D11F
:1016A00093B1A0B10121CDE900311346D0E909126F
:1016B0000AF06AFD074B984208BF6FF00B0002B0BA
:1016C00010BD6FF00F00FAE76FF04C00F7E76FF016
:1016D0000100F4E72EF8FFFF2DE9F7438846154691
:1016E000066906F55973D3E8AF3F022B5FD1136843
:1016F00023B96FF0150003B0BDE8F0831B78002B11
:10170000F7D0D6F86093B9F1000F33D106F5D8774A
:101710004FF0FF324FF0FF3338460BF097F9304669
:101720002A6801A9FFF7AAFE019C1CB938460DF0F2
:10173000BFFEDEE705F10803A3666B6984F86490D9
:10174000E366E46360B138460DF0B2FE21463046F0
:10175000236E2A68FFF770FE0020C8F80040CAE731
:101760002022296804F1400012F007F838460DF0F5
:101770009FFEF1E730460F490DF068FE0446002851
:10178000B7D005F1080383666B69C063C3660023A5
:1017900080F8643020222968403011F0EEFF2246A4
:1017A0000121304600F060F80028D5D0A1E76FF0A5
:1017B0000F00A0E7AF6E010010B50C46006900F500
:1017C0005973D3E8AF3F022B0FD189B10A4900F515
:1017D0002C7011F002FC204610F075FF70220021E1
:1017E000204612F049F8002010BD6FF00F00FBE713
:1017F0006FF00100F8E700BFDC1700202DE9F04F83
:1018000005460E4690460027D0F8B0A085B0AAF550
:10181000AE7421463046FEF705FEE0B9114BA4F147
:10182000400B0293DAF810303246CDE900832946A6
:101830004FF0FF335846AAF5CE790AF0F1FC60B9B3
:101840007023012203FB079383F86420DAF80C303D
:101850000BB158469847703417B105B0BDE8F08F0A
:101860000127D6E759F600001FB5144690B18AB19A
:10187000012912D10A4B00F1E0010293D0F8AC31FA
:10188000403201934FF0FF33204600930AF0C8FC2A
:1018900004B010BD6FF01500FAE70020F8E700BFB4
:1018A00059F600002DE9F04387B00E46DDE90E81C0
:1018B0001446DDE910251F4630B329B3DFF850C0C8
:1018C00000F1E009002D08BF65469EB9CDE903444B
:1018D00000F5CE742046059611F01AF903ABCDE958
:1018E00000432A463B46414648460AF06FFD07B092
:1018F000BDE8F083002241460E9248462A4607B0D2
:10190000BDE8F0430AF08EBE6FF01500EFE700BFB0
:10191000FD170000F0B50E46044689B0002872D0CD
:10192000436B0BB9394B436301232246E363002326
:10193000D4F8981004F1400042F8301FCDE901338B
:101940004FF0FF330093D4F89C3010F0A1FB304AE5
:1019500006AB92E8030083E8030018460AF01AFB7E
:101960000546D8B904F134000AF0F6FA0546A8B9DC
:10197000616B284805AA10F067FB054670B9059B06
:101980009A6872B10C33D4F89400C4F8A0300DF00A
:1019900094FEC4F8D40030B96FF00B05284609B0A6
:1019A000F0BD0346EFE7D4F894000DF086FEC4F8CE
:1019B000D8000028F0D0D4F88C30D4F8A010C4F8A7
:1019C000A8300423C4F8AC30C4F8C4300223A362A6
:1019D000114BB4F89420D4F8D470C4F8B810C4F8FB
:1019E000D010D4F89010236204F1A403A4F8B0201E
:1019F000C4F8A470C4F8C010A4F8C820C4F8BC008F
:101A0000A661E362CAE76FF01505C7E7464B010020
:101A1000903D0100504B01004C3F01002DE9F04783
:101A2000044607464FF00109DFF8508014B93846E4
:101A3000BDE8F08794FAA4F5B5FA85F509FA05F33F
:101A40002E0108EB05156FEA030A24EA03042B7B39
:101A5000002BEBD058F806301B694BB9464473682D
:101A600004222846196807EA0A0700F051FADDE760
:101A7000284698470028D9D1F0E700BF7C3D0100F7
:101A800030B5002289B00F490F4811F0C3FC002285
:101A900000230024CDE906230E230C4DCDE90334A9
:101AA0004FF440722846CDE90144094B094900949E
:101AB0000BF098FB0849284611F007FB204609B0B7
:101AC00030BD00BFDD1A000068100020E00B0020D0
:101AD000B51D0000202C0020584B010001480BF0E0
:101AE0009BB800BF600600202DE9F04780461F48E4
:101AF0000F460DF034FE0646002830D0002528465B
:101B0000BDE8F087237B6BB12368DB680BB120460F
:101B1000984723681B69D3B9636804222046196873
:101B200000F0F6F9013610344C45EBD3B8F1000F54
:101B3000E5D0002DE2D02846FFF770FF0546002FC4
:101B4000F7D000214FF4A4700BF0FCFDF1E7204624
:101B500098470028E0D00AFA06F31D43E2E705465D
:101B60004FF0010A024CDFF80C90DDE7141800205A
:101B70007C3D01008C3D0100014B53F82000704773
:101B80008C3F010008B5034608462BB1044A136098
:101B900000F05EFC002008BD6FF01500FBE700BF01
:101BA000C002002010B5044C237813B903480BF091
:101BB00033F80123237010BD6C2300206006002041
:101BC00010B5044606480DF0CAFD3CB1054BD3E8FC
:101BD000EF1F0139C3E8E21F002AF8D110BD00BF92
:101BE0000C1800201018002000200146034BD3E8F9
:101BF000EF0FC3E8E21F002AF9D170470C1800204C
:101C000070B5FFF7F1FF0546074C084EB44200D30C
:101C100070BD63685B792BB123685B6813B129469B
:101C2000204698471034F1E77C3D01008C3D0100CF
:101C300010B5044C044920460DF027F9034B1C60F5
:101C400010BD00BF4C050020783F010004180020A3
:101C500008B50023074A4FF400411370064A0748AD
:101C60001360074A1360FFF78DFFBDE80840FFF7D8
:101C7000DFBF00BF6D2300200C1800205BF70000C1
:101C80001018002001460022002301480DF01EB963
:101C90004C05002001480DF0B4B900BF4C050020F0
:101CA000024B014618680DF000BA00BF041800206E
:101CB00001480DF035BA00BF4C05002070B5264B29
:101CC0001878002847D0FFF7E5FF054670B1234B91
:101CD000D3E8EF1F0139C3E8E21F002AF8D1204CF6
:101CE000204EB4422DD32846FFF7DAFF1E4B1F4C7F
:101CF0001B68002B19DD11F046FB4FF47A72A0FB34
:101D0000020302FB0131C30B43EA4143D4E9002043
:101D10009B1A40F2E9324FEAD13161EB0001934264
:101D200071F1000101D3FFF76BFFD4E9003213F525
:101D30007A7342F10002C4E90032BDE87040FFF757
:101D4000B7BF63685B7923B12368294620461B68C7
:101D500098471034C5E770BD6C2300201018002090
:101D60007C3D01008C3D01000C180020601000201B
:101D700070B50D4D297861B90120FFF7B5FE0B4C08
:101D80000B4EB44206D3FFF799FF0028FBD1012385
:101D90002B7070BD63685B791BB1236820469B681C
:101DA00098471034EDE700BF6D2300207C3D010013
:101DB0008C3D010000212DE9F0470846FFF794FE15
:101DC000044658B340F267684FF0000911F064FD13
:101DD0001B4B1C4A1B58136033B11B4B1B68092B50
:101DE00002DD1A480AF018FF0025194FDFF85CA041
:101DF00044B12046FFF712FE044618B94FF0FF38F1
:101E00004FF0FF39FFF75AFF064628B9B5B94246E9
:101E10004B4650460AF024FF3546E9E74FF0FF38BD
:101E20004FF0FF39D2E72B689B691BB1002228468F
:101E3000114698471035BD42F5D3E8E7054DFAE75E
:101E4000080000000818002010180020600600207C
:101E50008C3D01007C3D010013B518480DF07FFC5E
:101E6000174B1B7873B1EFF31184202383F312888F
:101E7000BFF36F8FFFF722FF84F31188BFF36F8FDB
:101E800002B010BD0F4B1B68002BF9D050B90022D7
:101E900000230D48CDE900234FF4004200230BF04E
:101EA000D7FEEDE70928EBD1074811F0BFFA074844
:101EB00002B0BDE810400AF0AFBE00BF101800200D
:101EC0006D23002008180020681000206006002004
:101ED00010B5064B04461B6898472146A06004488D
:101EE0000DF070F8BDE81040FFF7B6BFC00200204B
:101EF0004C050020044A054B9B1AB1EBD30F34BFAD
:101F000052F83100002070478C3C01007C3D0100FC
:101F1000084B10B4C31A44681B1101332371436882
:101F20009A7101224368196043685A7110BCFFF727
:101F300039BE00BF7C3D01002DE9F04F8FB0C1F3E9
:101F40004A2804AF0D469146B8607B600C0DB8F18D
:101F5000000F63D000264FF0040B4FF00A0A07F180
:101F60001403C7F80C80C7E907667E620193CDF8B9
:101F700008B0CDF800A007F11C0332464846F968C6
:101F8000FEF786FEB0F5006F03461CD36C468AB0A0
:101F9000D9F8041004AB26481A46C3E9050140F2FB
:101FA000FF71D9614FF400711984224B42F8103F40
:101FB0004FF4125133462048FFF7BEFFA5462C3799
:101FC000BD46BDE8F08FC0F30A0804F117001844BD
:101FD00020F0070080083B60FFF754FE68F35325AC
:101FE000044690B13B6800F11001C7E9083607F1DB
:101FF0001403F961CDE900A3CDF808B048460F4AB3
:10200000F96807F11C03FEF743FE68F353252A46DF
:1020100020467B68B9680DF0D4FBD0E704F11700C7
:1020200020F007008008FFF72DFE0446EDE700BF13
:102030006D4B0100040000011C3D010097F70000FA
:102040002DE9F04F87B00446DDE9105ADDE9126949
:102050000F4693469846A6B31021334652460020B9
:10206000CDF80090CDF81490FEF740FC014605F144
:1020700017000844144B04F007040BF0070BE400AE
:1020800020F0070003EA412344EA8B1480081C4334
:102090000391FFF7F7FD44EA0554054640B13EB110
:1020A000334652460399CDF800901030FEF71EFCDF
:1020B000434622463946284607B0BDE8F04F0DF0AA
:1020C00080BB3146D3E700BF00FE0F00406820B15F
:1020D000034BC01A40F3CF0070474FF0FF307047FA
:1020E0008C3C01000EB403B503AB53F8042B01463E
:1020F0000448019301F0E8FA02B05DF804EB03B084
:10210000704700BFD7F80000CA0605D48B064CBF45
:1021100002490349FFF7E6BF704700BFAE6E0100FA
:10212000AD6E01002DE9F04F89B09B46149B9DF8E0
:102130004CA00693159B04460593169B0D469046AE
:10214000179E0493BAF1000F00F09D8006F480738F
:1021500007930DF01EFB06F00209024600283ED050
:1021600020469149FFF7BEFF0746B9F1000F08D09E
:1021700016F0440F35D12A4620468C49FFF7B2FFAE
:10218000074406F0010353B1894B204653F82A2037
:10219000884B8949002A08BF1A46FFF7A3FF06F4B7
:1021A0008073002B49D006F00803002B63D1B8F1EF
:1021B000000F66D0424620468049FFF793FF054650
:1021C000069B3D44002B6DD1049B002B73D1F3077C
:1021D00000F1E48031462046FFF796FFD8E007463D
:1021E000C3E7774B18680028CAD0764B4FF47A794A
:1021F0001B684FF46161B5FBF3F5B5FBF0F300FB31
:10220000135509FB05F5B3FBF1F2B5FBF0FE4FF0FA
:102210003C0C01FB123100FB1E55B1FBFCF309FB2A
:1022200005F5B5FBF0F50CFB131120460091CDE947
:1022300001E56549FFF756FFA2E706F00803EBB199
:10224000624B204653F82A206149FFF74BFF0546B1
:10225000B8F1000F05D0424620465849FFF742FF2B
:102260000544BBF1000FABD05A4620465949FFF751
:1022700039FF0544A4E74FF0000BE1E706F008053D
:10228000E6E745469CE7BBF1010F069B06D1002B14
:1022900064D1049B002B7BD000250CE0002BF8D0F0
:1022A0004D485CE04D48069B22464D490CF07DFCB4
:1022B000049B002B68D0DFF82C81DFF82C91049F61
:1022C0003146102F204628BF10274FF0000BFFF794
:1022D0001BFF5D4545DC059B494620461A78FFF704
:1022E00001FF4FF0010B1BF0070F03D141462046C1
:1022F000FFF7F8FE5F453BD9059B4946204613F89A
:102300000B20FFF7EFFE0BF1010BBBF1100FEAD131
:102310004FF0000B20463549FFF7E4FE5A46059B77
:1023200020469A5CA2F120015F2928BF2E22304965
:10233000FFF7D8FE0BF1010BBBF1100F1DD01BF006
:10234000070F03D141462046FFF7CCFE5F455A46B2
:10235000E5D841462046FFF7C5FEEBE71F48554646
:10236000A1E741462046FFF7BDFE0BF1010BB0E7A8
:1023700020462049FFF7B6FEC5E7059B3B44059381
:10238000049BDB1B04939AD1BAF1000F7FF41FAFBB
:10239000204609B0BDE8F04F0DF090BA2046054A3E
:1023A0000549FFF79FFE15E7B14B0100B54B010052
:1023B0009C3F0100AC4B01004F590100DA4B01007A
:1023C0001C18002018180020BE4B0100B03F01006F
:1023D000DE4B0100E44B010005F90000D7F80000D6
:1023E000C9360000796E0100E94B0100EF4B010096
:1023F000F14B0100776E010042F20F7373B58B420F
:1024000028BF0B4605680446052168460D4A0BF0B7
:1024100091FE0646636828460B225B680A490DF068
:102420003FFA63683246694628465B680DF038FA21
:1024300063681B2228465B6804490DF031FA02B03C
:1024400070BD00BF3C540100104C0100F44B010072
:1024500000210123064A904206D8064A01B9012309
:102460001360054B18607047012140085B00F2E7DC
:1024700040420F00181800201C180020F8B50D4627
:102480000446064F4618B44201D12846F8BD14F858
:10249000011BBB6801485B689847F4E7A839010055
:1024A000014B036000207047F83F010008B5044865
:1024B0000CF0D5FBBDE8084002480CF0D0BB00BFD3
:1024C000564C01008B4C01000449431E0F3013F899
:1024D000012F8A5C83421A70F9D17047B94C010010
:1024E000F0B50746264E8DB001AD0C460FCE0FC598
:1024F0000FCE0FC596E8070085E807003846002F85
:1025000039D0002C39D0381F0246214610344B7880
:102510000D781B0443EA0563CD7804312B4311F891
:10252000025C8C4243EA052342F8043FEFD10421C8
:10253000144C8A07036916D1C3F30742A55C1A0E2F
:10254000A25C42EA0562C3F30725655DDBB2E35C8A
:1025500042EA054242EA032221F0030330336B448E
:1025600053F82C3C534050F8042F013153402C2990
:102570000361DED101200DB0F0BD2046FBE700BFB6
:10258000983D0100B94C01002DE9F04F0027036888
:102590009DB002934368DFF8BCA103938368DDE933
:1025A00002460493C36805930369DDE904BE0693FC
:1025B000436907938369DDE9062C0893C36998464C
:1025C0000993089B0093CD590CAB2DBA5AF8049B84
:1025D000DD514FEAF223A94483EAB213009D83EA56
:1025E00072634B4425EA020502EA0C0985EA0905F3
:1025F0002B44434486EA0B054FEA743888EAB40852
:10260000254006EA0B0985EA090588EAB45804372B
:10261000A844402F03EB0E054344DE46DDF800805E
:1026200040F088804FF0100A4B490A9151460AF158
:10263000010A0DF1700E0AF00F070EEB870757F82D
:10264000407C01F00F094FEAB748019788EAF71874
:1026500001F10E0707F00F070EEB870757F8407CD4
:1026600009314FEAF74E8EEA774ECDF82CE001F0B3
:102670000F010DF1700E0EEB81010EEB890959F877
:1026800040EC51F8401CBAF1400F7144DDF804E011
:1026900088EADE08DDF82CE041448EEA972E71448A
:1026A00005EA02084FEAF52E2CEA050787EA080733
:1026B0008EEAB51EDDF828808EEA756E774458F8EC
:1026C00004EF49F8401C77440F4400994FEA733EE9
:1026D000394484EA0607CDF828808EEAB30E07EA6B
:1026E000030704EA06088EEAB35E87EA0807774420
:1026F0000F4401EB0B0ECDF800C0B34622D1029976
:102700003944016003991944049B41602344836068
:10271000059B3344C360069B73440361079B2B44B2
:102720004361089B13448361099B6344C3611DB0EB
:10273000BDE8F08FB346CDF800C0264694461C464F
:102740002A4640E7944626462A461C4675463B469E
:102750006CE700BFF83F01003440010010B50446AB
:10276000C8B1702200210DF045F90B4B0B4A0C4902
:10277000C4E900230B4B0C48C4E902130B4BC4E91A
:10278000040301200A4BA36103F17453A3F523034F
:10279000A3F69243E36110BD85AE67BB67E6096AA5
:1027A00072F36E3C3AF54FA57F520E518C68059B33
:1027B000ABD9831F01480BF07BBB00BFF840010081
:1027C00038B5044618B90F4B0F485B6898476168E5
:1027D000B1F5683F10D0B1F5680F0DD00B4DA9428F
:1027E0000AD011F46861206807D00146084810F04B
:1027F00061FA00232360656038BD142211F03CF8B3
:10280000F9E700BFCC040020B94D01002C5F5CA9A2
:102810004C1D002008B560B34368B3F5683F0ED087
:10282000B3F5680F18D0144A934220D000684FF0D7
:10283000FF324FF0FF330AF009F958B115E00122D9
:102840000368D3E8EF1F002903D1C3E8E02F002875
:10285000F7D10AD1002008BD0368084A1B7803F5A8
:10286000807352F82330002BF4D00548F3E7054875
:10287000F1E76FF4E040EEE72C5F5CA90000035045
:10288000E98FFFFFEA8FFFFF08B520B34368B3F578
:10289000683F09D0B3F5680F13D0114A93421DD099
:1028A00000680AF04BF914E000220368D3E8EF1F38
:1028B000012903D1C3E8E02F0028F7D109D0094846
:1028C00008BD00210368084A1B7803F5807342F8AD
:1028D00023100020F4E76FF4E040F1E70348EFE74E
:1028E0002C5F5CA9E98FFFFF00000350EA8FFFFF18
:1028F00010B5044618B91D4B1D485B6898476368BE
:10290000B3F5683F2FD0B3F5680F2CD0194A934226
:1029100019D1236803BB4FF0FF324FF0FF3321463C
:1029200015480AF065F808B923681BB90F4B13481E
:102930005B68984714220021206810F09DFF4FF437
:102940006863636008E0B3F5683F0DD83A2B03D0A5
:1029500040F6BA629342DED1206810F0E3F9636872
:1029600043F03A03636010BD054AF3E7CC0400204E
:10297000B94D01002C5F5CA94C1D0020DF4D01000A
:102980003A00003A08B5064940231422054810F0E1
:1029900083F9BDE80840044904480BF0FBBA00BFC6
:1029A0004C1800204C1D0020004101001441010082
:1029B0002DE9F04706460C4600AF002936D0D1E994
:1029C0000012E9468AB06D46A3684FF0050AA84692
:1029D0001F48C5E90723C5E9050148F810AF0023E2
:1029E00042464FF421511B48FFF7A6FAD4E90312DF
:1029F000CD466369AD461848C5E90723C5E9050119
:102A0000C5F810A0002342464FF421511148FFF7AA
:102A100093FACD46E3690121104A0E480CF02AFFD3
:102A2000A36901210E4A0B480CF024FF012E07D1A7
:102A3000EFF305830B4A31460648103B0CF01AFFB2
:102A40002146304609F014FEBD46BDE8F08700BFC0
:102A50000C4E01005C3D01003B4E01006A4E01003E
:102A6000794E0100A74E010030BFFFF7FDBF00BF48
:102A70002DE9F04105460B4EDFF82C80324606EB7F
:102A80000807CC1B2046094910F0E9FEA019424670
:102A90000021083C10F0F0FE6C6707F10800BDE86B
:102AA000F08100BF00000000040000008C3D010028
:102AB000074A936893F90E10002907DB5269934285
:102AC0001FBF044A536843F080535360704700BFF0
:102AD0004421002000ED00E070B52A4C06460D466A
:102AE00029482A490DF0D9FBA36ADB0647D52648B9
:102AF00027490DF0D2FB1120A36A1C0704D52248F8
:102B000024490DF0CAFB12201E4CA36A990712D566
:102B100021491D480DF0C1FB636BA26A120609D55D
:102B200001211E4A18480CF0A5FE1EB1A36A23F02D
:102B30008003A3621320134CA36ADE0704D5124856
:102B400017490DF0AAFB1420A36A9C0604D50E4871
:102B500014490DF0A2FB15200A4B9A6AD10658BF02
:102B60009A6A9A6A920642BF5A6A22F400525A62DC
:102B70009A6A42F0FF029A6200232B7070BD102007
:102B8000BAE700BF00ED00E05C3D0100BA4E010075
:102B9000D04E0100034F0100164F01002E4F0100DF
:102BA000444F0100634F010010B5244C24492548CF
:102BB0000DF073FBA36A99013ED5224822490DF01E
:102BC0006CFB1E20A36ADA0104D51E481F490DF0D4
:102BD00064FB1F20194CA36ADB0204D519481C4969
:102BE0000DF05BFB0220A36A1C0304D515481949AC
:102BF0000DF053FB2120114CA36A590304D5114851
:102C000015490DF04AFB2220A36A9A0304D50D480A
:102C100012490DF042FB2320084CA36ADB0304D5C4
:102C200008480F490DF039FB2420A36A6FEA0343DB
:102C30006FEA1343A36210BD1D20C3E700ED00E05F
:102C4000924F01005C3D0100AA4F0100BD4F010001
:102C5000D74F0100015001001F50010044500100F6
:102C60005E50010070B5294C06460D46284829499A
:102C70000DF013FBA36AD9043CD5254826490DF075
:102C80000CFB1720A36A1A0504D5214823490DF02F
:102C900004FB18201D4CA36A9B0512D51C48204933
:102CA0000DF0FBFAA36BA26A100409D501211D4A9D
:102CB00017480CF0DFFD1EB1A36A23F40043A362A2
:102CC0001920124CA36A590504D5114816490DF074
:102CD000E4FA1A20A36ADA050ED50D4813490DF05F
:102CE000DCFA1B20094A936A43F47F439362002372
:102CF0002B7070BD1620C5E7A36A9B04F2D504486B
:102D00000B490DF0CAFA1C20ECE700BF00ED00E013
:102D10005C3D0100895001009F500100034F0100FC
:102D2000B0500100C9500100DE500100F95001000F
:102D3000634F01002DE9F0418AB0654B0446D3F89A
:102D40000480002600AFC8F3080586F31188BFF39E
:102D50006F8F02F07F43B3F17F4F07D102F00C0376
:102D6000082B12D15B495C480DF097FA00263446D7
:102D70000023FB71EB1E092B00F28980DFE803F0D2
:102D80000A7F827C87878787878510074CBF0C4620
:102D90000126EDE7514950480DF07FFA00234C4DD4
:102DA000FB71EB6A9A0705D54D494B480DF075FA52
:102DB000002332E0EB6A002B01DA4A49F5E7EB6ABF
:102DC0005B00F5D5484944480DF067FA6B69A26984
:102DD00043F480736B61BFF34F8FBFF36F8F6B69E9
:102DE00032F8022C23F480736B61BFF34F8FBFF373
:102DF0006F8F4DF602739A4208D0AB6ADBB273B3A1
:102E00000120F91DFFF768FE034606E02368012153
:102E1000364A31480CF02EFD2368FA79DAB907F109
:102E2000080504F1200C2A4620686168083403C2B2
:102E300064451546F7D17A6A002E44D0C2F30801E2
:102E400021B96FEA52226FEA42227A62184607F1EC
:102E50000801FFF7ADFD2837BD46BDE8F081AB6A3C
:102E600013F47F4F04D00120F91DFFF7FBFECBE7E1
:102E7000AB6AB3F5803F9BD3FFF796FEC4E7002013
:102E8000F91DBFE70020F91DEFE719498DE7194A41
:102E900018F4F87FE8468AB0174B18BF13466A4605
:102EA0001649103DC2E905134FF400731384144B07
:102EB000D56142F8103F00234FF411510648FFF747
:102EC0003BF8C54674E722F4FF7222F00102BCE72A
:102ED00000ED00E03F5101005C3D01006A5101003E
:102EE00081510100A2510100B0510100CF510100F8
:102EF000EB51010026510100115101000F52010058
:102F000004000001044B5A6942F010025A615A69E8
:102F100042F480625A61704700ED00E0EFF30880F0
:102F2000EFF3098101B57246FFF704FF01BD00BF51
:102F3000002080F31488BFF36F8F002080F30A888D
:102F400080F30B8808F0FEF800200E490860BFF3FC
:102F50004F8F0D4880F3088800F02CF8202080F374
:102F600011880A484FF40061401880F30988EFF394
:102F700014800221084380F31488BFF36F8F00F0A0
:102F800003F9000094ED00E0B84E0020783D0020E9
:102F9000002318460649D1F89020C2F30722934235
:102FA00000DB7047C1F89830C1F8A0000133F6E7A4
:102FB00000ED00E010B572B6002484F31388FFF72B
:102FC000E7FF23464FF0FF300C4A03F120010133A5
:102FD000102B42F82100F8D100234FF0FF30074AB0
:102FE00003F160010133102B42F82100F8D162B6E1
:102FF000BFF34F8FBFF36F8F10BD00BF00E100E044
:10300000084B9B6883420BD1EFF3058343B1064B1A
:103010005A6842F080525A605A6A22F400425A6258
:1030200010F054B94421002000ED00E06FF00A01D7
:10303000084A9368D967084998674B6843F08053FA
:103040004B60002383F31188BFF36F8F9368D86FB1
:10305000704700BF4421002000ED00E0EFF3118332
:10306000202383F31288BFF36F8F4FF00061084A6B
:1030700053699360074A5160596F074A11600021F4
:103080009A6F996782F31188BFF36F8F704700BF03
:103090004421002000ED00E0681D00200E498A68F0
:1030A0004FF030001044EFF3098C80E8F01F7446B5
:1030B0007046FFF7D3FFA64607498A6802F1300041
:1030C00090E8F01F8CF3098802F1000004B50DF0C0
:1030D000ECF8BDE804407047442100201EF0040FC6
:1030E0000CBFEFF30880EFF30980816911F8021C2F
:1030F0000229FFD001B50DF0C5F801BD40B200288E
:1031000007DB01234109034A00F01F00834042F816
:103110002130704700E100E040B200280CDB0122C2
:103120000649430900F01F008240203341F8232064
:10313000BFF34F8FBFF36F8F704700BF00E100E018
:10314000054B420953F82220012300F01F0003FA27
:1031500000F01040704700BF00E100E040B20028DE
:1031600001F10101ACBF00F16040064B4FEA411193
:10317000C9B2ABBF00F5614000F00F0080F800134A
:103180001954704714ED00E00B4A08B50B4B22F0C0
:103190007F029A60BFF34F8FBFF36F8FD3F8882001
:1031A00022F47002C3F8882009F04CFB0AF086FB79
:1031B00000F04AF809F086FB0000000000ED00E096
:1031C00042F8203C009B0B4942F81C3C019B21F03B
:1031D000010142F8183C029B42F8081C42F8143CDA
:1031E0004FF0807342F8043C0023203A0265836765
:1031F000704700BF5D1000000C4B15469860426F91
:103200000B4B0E461A60436E83F30B882C4686F3F5
:1032100009884FF00000074B984720464FF0000107
:103220004FF000024FF00003034C204744210020E0
:10323000681D0020B30201005D1000001022014B48
:103240001A61704700ED00E0002320210348C218F6
:103250000133452B82F80013F9D1704700E100E0FB
:1032600008B5EFF30583064A103B02EBC30152F8A1
:10327000330049688847BDE80840FFF719BC00BF24
:10328000F83901001FB5094C094A234601210948B4
:1032900000F012F900230393074B0121E41A01A85F
:1032A0000193029400F012F904B010BD0000072051
:1032B0000000002024410100F007002010B50C7A26
:1032C0000B6804F01F0223F01F031A43CB68640944
:1032D00023F01F03054943EA440343F00103C1F807
:1032E0009800C1F89C20C1F8A03010BD00ED00E0AE
:1032F00010B50A4BD3F89030C3F30723013B984233
:1033000008D901210346064A06480CF0B3FA6FF0CB
:10331000150010BDFFF7D2FFFBE700BF00ED00E096
:10332000265201003C3D01002DE9F04F894614462C
:1033300006464FF00008514D85B0C84527DAD6F84B
:1033400004A0BAF1000F44D0BAF11F0F17D91AF038
:103350001F0F14D1D6F800B01BF01F0F0FD1584625
:103360000CF0E3FF07460AEB0B0001380CF0DDFF21
:10337000874210D06FF01507414A3B4601E04346B3
:10338000404A012140480CF075FA6FF015042046C0
:1033900005B0BDE8F08F17F1160FEDD0BC42EBDDA4
:1033A000C5F89870D5F89C10C5F89870D5F8A0307D
:1033B00021F01F0143F01F0BD6E900321A44994255
:1033C00002F1FF3A1DD1D34507D13146F8B20CF0D6
:1033D000B5FF08F101080C36AFE73146C5F8987023
:1033E000D5F89C3022F01F0203F01F031343C5F8E9
:1033F0009C30E0B20CF0A2FF10F1160FC5D0441CB7
:10340000E7E7C5F89870D5F8A020013B23F01F032B
:1034100002F01F021343D3453146E0B2C5F8A03095
:10342000E8D00CF08BFF10F1160FAED0C5F89870F5
:10343000D5F89C209DF808300BF1FF3B62F30403A4
:103440008DF80830D5F8A0309DF808205B0863F3AC
:1034500047128DF80820D6E900321344009323F078
:103460001F035B44A3EB0A03013023F01F036946EB
:10347000C0B20393FFF73CFFBEE700BF00ED00E0E2
:103480006F5201004C5201003C3D01000522044BEB
:10349000C3F89420BFF34F8FBFF36F8F704700BF07
:1034A00000ED00E0BFF35F8F0022024BC3F89420D1
:1034B000704700BF00ED00E010B5034C2278FFF725
:1034C00033FF207010BD00BF6F2300202DE9F74FA0
:1034D000294D8A4606464FF00008AB46274FD04597
:1034E0001BDAD6F80490B9F1000F3FD031680846D6
:1034F00001910CF01AFF0199044609EB0100013813
:103500000CF013FF84424FF014021D4B08D002FB55
:1035100008F36FF015024BF8032003B0BDE8F08FFD
:1035200014F1160F2C60F8D01978A142F5DD02FBDA
:1035300008B0C7F89840C7F89840D7F89C4000F109
:103540000801007B64F304000871D7F8A0000C792F
:10355000400860F347140C71D7F89C1021F01F014C
:103560006960D7F8A01021F01F01296108F1010856
:1035700014350C36B3E700BF6C1D002000ED00E0F1
:103580006F230020F0B54149414CD1F890302568B7
:10359000C3F307239D4287B075D80020FFF782FF51
:1035A0003C4BC1F8C030854216D13B4C01A8257078
:1035B000FEF776FF00250646384FAE4213D10020B5
:1035C00023783249D1F89020C2F30722934254DB8A
:1035D000FFF75CFF00202FE0616801EB0011FFF7AF
:1035E0006DFE0130DFE70199280101EB0513DA6870
:1035F0003A40B2F5001F21D0B2F5800F2BD0B2F5C2
:10360000801F38D15A689B680958013B22F01F007F
:1036100003440120844623F01F0340EA4C10CDE907
:1036200002218DF8100002A920780593FFF760FEB3
:1036300000281DDA6FF0150007B0F0BD5A689B68CE
:103640000958013B22F01F0003444FF0020C0120F7
:1036500023F01F03E1E75A689B680958013B22F0F9
:103660001F0003444FF0000C062023F01F03D4E793
:1036700023780133237001359FE7C1F89830C1F8F2
:10368000A00001339EE74FF0FF30D5E700ED00E0EA
:1036900030410100AAFF44006F2300200000F0FF2A
:1036A00008B5024B1B689847002008BD801D00200C
:1036B000034B044A1860937843F0020393707047F9
:1036C000801D0020EC020020F0B587B007460E46B2
:1036D00014460021102268461D4610F0CDF8022342
:1036E0008DF80230054B2A4621466846CDE904761E
:1036F00001930AF04BFD07B0F0BD00BF6F0301005E
:1037000008B50649064821F00701C1F1005202F54B
:10371000E0220BF0F2F9002008BD00BF4F7300203B
:10372000841D002000F01F0240090DD001280DD19A
:10373000094B03EB8203D3F8002222F0E04242EA75
:103740000171C3F800127047044BF2E70023803286
:1037500053F82230FFDE00BF00288450002584503B
:1037600038B50124134B144DC3F80045022303213F
:10377000C5F8D0360020FFF7D5FF20460321FFF71C
:10378000D1FFC5F804472146C5F804492120C5F8F2
:10379000004BFFF7C7FF21462020FFF7C3FF21465C
:1037A0000B20FFF7BFFF21460A20FFF7BBFF0020D9
:1037B00038BD00BF001000500040005007B50DF1AB
:1037C00007000EF00CFB114B98421CD14FF48062A5
:1037D0000F4B1049C3F8B8254FF40062C3F83C25DD
:1037E0009DF807000EF0E7FA0B499DF807000EF070
:1037F000DDFA01209DF80730984007F0C1FD002058
:1038000003B05DF804FB6FF00B00F9E70000AD0BAF
:1038100000A002502CA0025028A10250052370B530
:10382000144D154E2C780134B4FBF3F303EB8303F2
:10383000E41A0EF07AFA114A137823B156F82430BC
:10384000C01A072814D94FF05023D3F8141141B1EE
:103850000021C3F81411D3F814312C700CB90123D2
:1038600013702C780EF061FA46F82400012070BD28
:103870000020FCE771230020901D00207023002011
:1038800048B1054B054A1B68B3FBF2F35843044BA0
:1038900043F00103184770470404002040420F0022
:1038A000103E0100014902480BF096BC584101004E
:1038B000A41D00204FF47F032DE9F041D3F83021FF
:1038C0000646072A0D46D3F8343120D1023B032B9C
:1038D00002D8124AD35CD3B14FF050244FF0010804
:1038E00000270520C4F81886C4F814760EF05CFA98
:1038F0004046C4F814860EF057FAC4F81476C4F89B
:10390000187630462B46BDE8F041002118474FF0AD
:1039100050230022C3F81426F3E700BFA55201008C
:103920001FB578B10023019303930123694608482A
:1039300002930BF064FC029B9B0700D1039B05B034
:103940005DF804FB024805B05DF804EB0BF0AEBC7B
:10395000A41D002070B5049CC4F30726304606F071
:103960008FFFE5B2014628460EF031FA0022012011
:10397000074BA40B04F0FC041A51A84007F006FD05
:10398000304607F031F92846BDE8704007F0F2BD37
:1039900080A0025073B501A807F0E6FD264B9842BF
:1039A00047D107F003F9041E0ADA9DF8040007F076
:1039B000E1FD01212346214A21480BF05BFF35E060
:1039C00040F607031F4D8DF80540AE68ADF8063090
:1039D0007468019B14B96FF05704EAE70821284680
:1039E000194AA047041EE4DB3369002BF3D00122FF
:1039F000082128469847041EDBDB01209DF804308F
:103A0000984007F0BDFC9DF805009DF804509DF816
:103A100007600EF074F9014628460EF0CCF90B4B06
:103A2000B60045F000459D51002CC2D1204602B0A1
:103A300070BD6FF01204BCE70000AD0BA95201008D
:103A40006C3D0100BC390100513A000080A10250D8
:103A50002DE9F341144683681B690BB10022984796
:103A6000C4F30726304606F013FF054630460EF035
:103A700046F94FF00008E7B2014638460EF0ABF9C0
:103A8000104B220E920043F80280304606F0F8FEFA
:103A90000D4A4FEA943C0CF0FC0C47F0004342F80E
:103AA0000C30014638460EF081F9084B05F1320220
:103AB000009330464346019452000EF02AF902B0BA
:103AC000BDE8F08180A1025080A00250553900006D
:103AD0001022174B70B5C3F840244FF47F03D3F87E
:103AE0003021D3F83431072A1BD1023B032B02D8F3
:103AF000104AD35CABB14FF05024012600250520BD
:103B0000C4F81866C4F814560EF04EF93046C4F8DE
:103B100014660EF049F9C4F81456C4F8185600207B
:103B200070BD4FF050230022C3F81426F7E700BF02
:103B300000300050DA5201000E4B402928BF4021CE
:103B400070B51D460C4C4618B04203F1020304D177
:103B5000002305F81130074870BD02781209A25CF5
:103B600003F8022C10F8012B02F00F02A25C03F8FC
:103B7000012CE9E7902300205653010030B503786B
:103B80008BB0044607AD032B21D8DFE803F0021AFF
:103B90001C1E12492846FCF74FFC059563781E2130
:103BA0000493A3780E4A0393E3780E480293237993
:103BB000019363790093A3790AF0BCFA09480BB02A
:103BC00030BD0949E6E70949E4E70949E2E70A2186
:103BD0002846084A0AF0AEFADFE700BF1153010099
:103BE0003353010072230020185301001F530100BA
:103BF000295301001564010030B50024094D0A4B1A
:103C000085B02846029303940FF002FA02AB2846CF
:103C100000934FF4A3620A23044909F0C7F9204630
:103C200005B030BDA010002067530100202F0020F8
:103C30000146014809F034BAA0100020037830B5DD
:103C4000012B13D0022B27D07BB90A46184B03F166
:103C5000100453F8045BA34242F8045BF9D11B78CB
:103C6000137043884B731B0A8B7330BD0A46104B8D
:103C700003F1100453F8045BA34242F8045BF9D14A
:103C80001B7813704368C3F307224B731B0CCB7371
:103C90001B0A8A730B74E8E700F1100350F8042B39
:103CA000984241F8042BF9D103780B70DDE700BF8F
:103CB00070530100012838B505460CBF0648074877
:103CC0000DF0F0FD044620B101210C300DF043FE53
:103CD0002576204638BD00BF400700209006002012
:103CE000132810B50CD10A480DF0DCFD044628B1AC
:103CF00001210C300DF02FFE01232376204610BD4C
:103D000009B10448F0E70120BDE81040FFF7D2BF39
:103D1000C407002014070020C36802211B78024A50
:103D200002480CF0B4BB00BF89530100C43C010041
:103D300037B50446084602EBC3039A4202D16FF03E
:103D40005E0010E0114611F8085BA54211D1038A0C
:103D50005178994209D908480121084A00940BF08A
:103D600093FD6FF0150003B030BD536898470020F5
:103D7000F9E70A46E1E700BFC43C0100B153010086
:103D800070B5C6683378B6F8014083B90F21204674
:103D900002F08EFEF378054650B90A4A118831B90F
:103DA0006FEA04506FEA10501080074A137070BD1C
:103DB0004372012102F062FD2846BDE8704002F026
:103DC0002BBD00BF542300201124002070B5C36810
:103DD0001D78BDB9B3F801600F21304602F068FECE
:103DE000044638B93346BDE870400121064A074809
:103DF0000CF04DBB294602F041FD2046BDE8704065
:103E000002F00ABD70BD00BFD3530100C43C0100E5
:103E100010B5C3680121B3F80140204602F048FE06
:103E200038B92346BDE810400121044A04480CF08B
:103E30002EBBBDE8104002F0EFBC00BFF9530100FB
:103E4000C43C010010B5C36801211C88204602F063
:103E50002FFE38B92346BDE810400121034A04482B
:103E60000CF015BBBDE8104002F0D6BCF9530100C0
:103E7000C43C0100012110B50C300DF0A0FDBDE8DF
:103E8000104003780121024A02480CF000BB00BF39
:103E90001D540100C43C0100014610B508480DF056
:103EA00007FD084908480FF088F8031E06DABDE848
:103EB00010400121054A06480CF0E9BA10BD00BFC8
:103EC0004401002038030020C01100203F540100AD
:103ED000C43C010010B5084C0146062294F86F005E
:103EE00002F034FF38B994F86F000522BDE81040A5
:103EF000024902F02BBF10BD00000020F752010064
:103F00000121024A02480CF0C4BA00BF5C5401000F
:103F1000C43C010098B50121044600AF0C300DF0FF
:103F20004EFD002321460F4A0078FFF701FF5F3066
:103F300015D1218AE068FFF7FFFD6C4688B06A461C
:103F4000094B4FF4E451C2E905304FF400739383F9
:103F5000064B074842F8103F0CF0A8FAA546BD46AC
:103F600098BD00BF5C4201007654010003000001CF
:103F7000C43C01000B46B0B50D8A00AF044629468B
:103F8000D868FFF7D9FD8AB06A46094BC2E90750E5
:103F9000C2E9053440F202439384064B4FF4325198
:103FA000054842F8103F0CF081FABD46B0BD00BF95
:103FB0009A54010005000001C43C010010B5012124
:103FC00004460C300DF0FBFC2146BDE810400723F1
:103FD000014A00780CF06DBA2442010070B5C56842
:103FE0000121B5F80160304602F062FD044638B99F
:103FF0003346BDE8704001210B4A0C480CF047BA2B
:104000002B783BB9D5F80330C0F8AD30D5F8073080
:10401000C0F8B130201D4FF480510CF03CFA20461E
:10402000BDE8704002F0F8BBF9530100C43C010048
:1040300073B53E480DF051FC0446002873D0017E54
:10404000012945D003296BD1038A032B02D8384AB2
:10405000012141E004210C300DF0B1FCFF23428826
:1040600006886376238AC6F30B009A42608309D0E0
:10407000012100922F48304A0BF006FC204605F043
:10408000DBF812E00F2102F013FD054610B9638B37
:104090002A4ADDE702F02CFD21466076320B2846E5
:1040A00002F072FA284602F0B7FB254BD3F84431F0
:1040B000002B38D0234924480EF07FFF031E32DA4C
:1040C0000121224A1B4802B0BDE870400CF0DFB964
:1040D000038A012B04D81E4A16480CF0D8F9CDE704
:1040E00002210C300DF06BFC054600780CF0BDF998
:1040F00010F002060DD140F6FB23164A1649174868
:104100000AF0BAFD86F31188BFF36F8F03231846B8
:1041100002DF04232146124A28780CF0CAF9ADE7E1
:104120000B46104A94E702B070BD00BF4401002066
:10413000BC540100C43C0100DD54010001550100E4
:104140000000002038030020C01100203F5401006F
:10415000235501003F55010073550100A155010091
:1041600004420100BE5501002DE9F74F00238046AF
:1041700089461746DFF810A1DAE8EF4FCAE8E23FB8
:10418000002AF9D1264644B9434601213F4A404816
:1041900003B0BDE8F04F0CF07AB9204604F09EFF62
:1041A0004FF00C0B3B4D0BFB0050438843451BD09D
:1041B000204604F093FF0BFB00504388012100933D
:1041C000354A434632480BF05FFBDAE8EF3FCAE876
:1041D000E26F002AF9D1002B53D01E46304603B0BF
:1041E000BDE8F04F05F028B8A7420ED020460DF0EC
:1041F00054FB012104F10C08404621760DF0ABFB85
:1042000040463A8AF9680DF0B0FB204604F066FF9C
:104210000C2707FB00504368ABB1B9F1000F12D176
:10422000204604F05BFF012107FB00504268D2E901
:104230000003127A03F01F07B9405B09DAB100EB03
:1042400083000CF028F9204604F048FF0C2707FBF8
:1042500000508368002BC1D0204604F03FFF784314
:1042600005F80090204604F039FF07FB0055A868C8
:1042700008F0D2FCB2E7C94300EB83000CF027F949
:10428000E1E703B0BDE8F08F40010020D255010006
:10429000C43C0100C01D0020FA55010038B50421BE
:1042A00004460C300DF08BFB034640885D7818B156
:1042B00022461978FFF758FF25B1BDE8384002487B
:1042C00008F0AABC38BD00BF2801002070B503214A
:1042D00004460C300DF073FB40F635420578B0F81B
:1042E0000100E36890421B7806D1BDE870400221CE
:1042F000074A08480CF0CBB818B122461946FFF718
:1043000033FF25B1BDE87040034808F085BC70BD9F
:104310002D560100C43C0100280100202DE9F84F72
:104320000123C668018A347800AF03EB84038B4213
:1043300040F283806D468AB06A46C2E907310523A0
:1043400040484FF42151C2E905043F4842F8103F6C
:104350000CF0ACF8AD46BD46BDE8F88F4B460121E8
:104360003A4A39480CF093F8013533789D42F2DA35
:1043700006EB8503B3F801900F214846B3F80340DC
:1043800002F096FB82460028E8D04FF0000900F1C9
:10439000280B1CB3EFF3118188F31288BFF36F8FE2
:1043A000DAF81C2072B1013ACAF81C2081F3118896
:1043B000BFF36F8F504602F0ADF8013C08F02CFCC3
:1043C000A4B2E6E7DAF8142062B981F31188BFF3EA
:1043D0006F8F01211E4A1C480CF05BF8504602F01A
:1043E0001BFAC1E7DAF8180013688242CAF81430E1
:1043F00008BFCAF8183081F31188BFF36F8FEFF34D
:10440000118088F31288BFF36F8FD168CAF81C102F
:10441000C2F80C90C2F80090DAF8241049B9CAE941
:10442000082280F31188BFF36F8F584608F0B8FD5B
:10443000C0E70A60CAF82420F3E700254FF02008FF
:1044400093E700BF63560100C43C01008D56010094
:10445000A956010073B5C5680121B5F80160304661
:1044600002F026FB044640B933460121284A294878
:1044700002B0BDE870400CF00AB82B78061D1A2B6C
:1044800019D1C378012B2AD14FF4806130460CF04A
:1044900002F842050FD4D4F8A03069460093D4F84E
:1044A000A8302046019302F0E9FE204602B0BDE8A4
:1044B000704002F0B1B92B788BB9B5F80330A4F88D
:1044C0009E30B5F80530A4F8A430B5F80730A4F84C
:1044D000A6306FF4807130460BF0F9FF14E0D6E897
:1044E000AF3FDB05F5D52B78202BF2D194F8AC301B
:1044F000002BEED0013B84F8AC304FF42032002387
:1045000004F1580008F0F6FD204602F02BFBCCE742
:10451000F9530100C43C010010B5C1E900239DF826
:1045200008300C460B7204F0D9FD0C22024B02FB42
:1045300000335C6010BD00BFC01D00202DE9F047B6
:104540004FF0FF3206464FF0FF33184888460DF013
:10455000A9F9044638B34FF0000900F10C07012116
:1045600038460DF0F8F9204684F8189004F0B6FDAE
:104570004FF00C0A0E4D0AFB00504680204604F016
:10458000ADFD0AFB0050C0F80890204604F0A6FDDF
:104590000AFB005503213846C5F804900DF0DFF9F9
:1045A000068080F802802046BDE8F087980700204A
:1045B000C01D00202DE9F041074616460C4688B084
:1045C00021B9FFF7BBFF0446002854D002AD0122F9
:1045D000002128460EF043FC204604F07FFD0C230A
:1045E000DFF8A08003FB0080856020460DF08DF988
:1045F000014625480DF087F94FF4A02228460023F4
:1046000008F02EFB054698B140F24D131F4A204991
:1046100020480AF031FB2A4639461F480AF02CFB95
:10462000002383F31188BFF36F8F0323184602DF43
:10463000204604F053FD0C23584318F8005095B160
:1046400002213B46154A16480095093D0BF01CF91E
:10465000EDB2204604F0F0FD092D0FD8114B58574C
:1046600008B0BDE8F08116B134600020F8E72046BC
:1046700004F0E2FDF9E76FF06800F1E76FF0040085
:10468000EEE700BFC01D00204C0100203F55010097
:10469000C0560100A1550100C9560100F5560100A0
:1046A000C43C0100445B010073B506460D4642F26E
:1046B0002F00002101AAFFF77DFF044638B1012138
:1046C000144A15480BF0E5FE204602B070BD019873
:1046D000C368B3F801203280B3F803302B8004F0B4
:1046E000ABFD3388A3F11B02E02A04D902210B4A57
:1046F00009480BF0CCFE44F248112B88A3F5A472B4
:1047000092B28A42E0D90221054A03480BF0BFFE6B
:10471000DAE700BF11570100C43C01003157010026
:1047200056570100F7B5144B054693F99B300C46DC
:10473000002B1DDA14B9204603B0F0BD082C4FF051
:10474000000142F2180001AA264628BF0826FFF7FA
:1047500031FF0028F0D1019F3246F9682846013127
:104760000FF07DF8384604F067FD3544A41BE1E7FF
:104770006FF08500E0E700BF000000202DE9F04F5A
:1047800089B00026A04BB0F80190198849F4704216
:10479000914208BF1E80047808BF9C4B054608BFA5
:1047A0001E7802AF2CB33C2C1CD101F0C5FA6FF07F
:1047B000800110300BF08BFE0020FFF78BFB0546CD
:1047C00040B90121924A93480BF063FE1C37BD4665
:1047D000BDE8F08F4472002102F050F8284602F044
:1047E0001BF8F3E7234602218B4A8A480BF04FFE61
:1047F000ECE7C37800F10408012B08BF874B404663
:1048000008BF93F86F400BF02CFE414650B34FF0B9
:10481000010A07F110000BF019FED5F81130C7F8A6
:104820000930B5F81530A7F80D30EB78012B2ED0F4
:104830004046FFF7A3F96C4688B002AA784B4FF4C4
:10484000E251C2E905304FF400739383754B714810
:1048500042F8103F0BF02AFE1321A54648460BF004
:104860003EFEB3E720460BF0E8FE0346006895F8ED
:1048700004A038619A889B796868BA82BB75B8F8D9
:10488000042098F80630B860BA81BB73CDE707F111
:104890001000FFF71FFBEB780446012B0AD101F053
:1048A0004BFA83466FF0800110300BF010FE584633
:1048B0000BF0C2FF002CBBD02346B5F8012023F833
:1048C000882BBA7D3869B98AC4F888009A710022A9
:1048D0009980B5F81730A4F89E30B5F81930A4F8CF
:1048E000A430B5F81B30A4F8A630EB786272012B27
:1048F000E37020D187F808A0BA89BB7BB868A4F818
:10490000932084F89530C4F88F0001F015FA237ACB
:10491000424AC3EBC3039918D358C4F896308B8826
:10492000A4F89A308B7984F89C30D2F8E4305D0694
:1049300001D501F0C1FB0721204601F09FFF26B100
:1049400001212046667201F099FF20460BF0DCFF42
:10495000A37A072B53D1231DD3E8AF3F13F4805F15
:104960002E4E20D1E3781BB196F8D83018071AD50F
:10497000022142F21600FFF7E1FD0546002840D073
:1049800002210C300CF0EBFF238800220380294623
:1049900042F21600FFF70EFE034620B10121224A23
:1049A0001C480BF074FD96F8D930D9070DD50223B9
:1049B00000211A46204600910BF0CAFD034620B1A3
:1049C00001211A4A13480BF062FD96F8D8309A0676
:1049D00015D5D6F864319B689B0710D5B91D381DD5
:1049E000FFF762FE58B92046FA88B9880BF092FDAD
:1049F000034620B101210E4A06480BF048FD20462F
:104A0000EDE66FF06803C9E754230020112400206D
:104A100079570100C43C01009A57010000000020B2
:104A2000B357010003000001CF570100F057010008
:104A30000758010000B5C36889B01A788DF80020C6
:104A4000B3F80120ADF80120DA788DF80320B3F82F
:104A50000B20ADF81720B3F80D20ADF81920B3F8EE
:104A60000F20ADF81B205A7C8DF81D20586801904E
:104A70001A899B7AADF808208DF80A30084B6846F1
:104A80001A689B88CDF80B20ADF80F30CDF81120B7
:104A9000ADF81530FFF772FE09B05DF804FB00BFFA
:104AA0000B53010070B58EB06C4606460A4D0D2EB4
:104AB0000FCD0FC40FCD0FC40FCD0FC495E8030069
:104AC00084E803009DBF0EAB03EB860656F8380C56
:104AD00002480EB070BD00BFC43D01002358010064
:104AE000024BD3F864315B69184700BF0000002017
:104AF00038B505460C4619B9FFF720FD0446C8B184
:104B000040F635439D420FD12046FFF7E9FF0546A9
:104B100040B1034601210948094A0BF0B8FC204680
:104B200004F08AFB284638BD214606480CF0EBFE0F
:104B30000025F7E76FF06805F4E700BFC43C01000B
:104B40002B5801004C0100202DE9F0410446458B13
:104B5000477E807A04F0BAFA6169064649B1637A01
:104B6000DA0704D4436A20461B689B6898470023F1
:104B70006361214630460EF064F9244B93F88A3085
:104B80009B0641D5384602F049FA044638B93B46FF
:104B9000BDE8F04102211E4A1E480BF078BC837A22
:104BA000073B012B09D91B4802211B4A0BF071FC62
:104BB0002046BDE8F04101F02FBE01F02DFE052199
:104BC00040F63540FFF7BAFC044630B9BDE8F04185
:104BD0000121124A0F480BF05CBC00F10C070121C7
:104BE00038460CF0BCFE01260421067038460CF055
:104BF000B6FE002305808670C3702146BDE8F041F3
:104C000040F63540FFF774BFBDE8F081000000209A
:104C10004D580100C43C010076580100A258010023
:104C200073B5C368D9789A781E8842EA0122ADF834
:104C3000002059791A79B4B242EA0122ADF8022073
:104C4000D9799A79204642EA0122ADF804201A7AED
:104C50005B7A012142EA0323ADF8063001F028FF18
:104C6000054658B901211C4823461C4A0BF00FFC8D
:104C7000022120460BF0B8FC02B070BD694601F07D
:104C8000B5FF38B91E2120460BF0AEFC284601F0D6
:104C9000C3FDF1E70E2142F22000FFF74FFC04466E
:104CA0000028F3D00E210C300CF059FE00230680B2
:104CB000C0F80A30BDF8003021464380BDF802300C
:104CC0008380BDF80430C380BDF80630038142F212
:104CD0002000FFF70DFFD9E7C43C0100F9530100A4
:104CE0002DE9F84F4A4FDFF82C8107F11409FB68D2
:104CF00048466FF39433FB6001F044FD451C4FF0D0
:104D0000FF324FF0FF332946414808F0DBFF70B116
:104D100040F6783342464049404809F0ADFF002351
:104D200083F31188BFF36F8F0323184602DF384ED9
:104D3000DFF8ECB015B908F083FCD8E7F368C3F3EB
:104D40008633022B53D9042B5BD1337B002B51D1FB
:104D50000022002333480CF0A9FD044668B940F650
:104D60000A33424630492D4809F086FF84F3118802
:104D7000BFF36F8F0323184602DFDFF8B0A04FF0B8
:104D8000FF324FF0FF332A4807F06AFFDAF840217C
:104D90005AB1284A012122480BF07BFBDAF8400186
:104DA00004F04AFA0022CAF8402120460CF0ADFD7A
:104DB000CAF840012046FFF793FE0346B8B101212F
:104DC0001D4A17480BF063FB194807F025FF2046E2
:104DD00004F084F90C22194B02FB0033588818B1F7
:104DE00022461F21FFF7C0F9204604F025FA1436A9
:104DF000013D9FE7012BFAD13069383802F080F885
:104E0000F5E7022158460E4A0BF041FBEFE700BFE1
:104E1000FC0200203F550100C0560100A1550100D1
:104E2000C43C01004C0100204F660100000000203E
:104E300028010020C55801002B580100C01D00208A
:104E4000E05801002DE9F843044600F10C06304615
:104E50000CF0C5FDB4F810800546B8F1010F0AD872
:104E600043460121194A1A480BF011FB2046BDE8C0
:104E7000F84304F0E1B9304602210CF0A0FD0746EA
:104E800000780BF0F2FA10F0010906460DD140F659
:104E90005673104A1049114809F0EEFE89F3118843
:104EA000BFF36F8F0323184602DF052321460C4A08
:104EB00038780BF0FEFAB307D8D56369A4F81080F0
:104EC00013FA85F5E560BDE8F88300BF23550100BE
:104ED000C43C01003F55010001590100A1550100EA
:104EE000DC41010038B5044608F06EFB237E012B3F
:104EF00005D0032B14D12046FEF7CEFF0BE0E3686C
:104F000018780BF0B2FAC207054602D52046FFF723
:104F100099FFAB07EFD4002408F06AFB204638BDA8
:104F20000121054A05480BF0B2FA204604F084F945
:104F30006FF01504F0E700BF1A590100C43C0100EE
:104F4000084A0346D2F8640130B9D96839B15969C1
:104F500029B1C2F8643170476FF0770070476FF085
:104F600015007047000000202DE9F84F3D4C00AFC0
:104F700004213D480BF08FFA3C4DE2793C4B204632
:104F8000012A88BF1D466E46FEF7F8FD8AB06A46C4
:104F9000384BA346C2E905350125374BD061136272
:104FA000364B4FF42351364842F8103F0BF07EFA4F
:104FB000DFF8D080B546DFF8C890334EE3790BF1C7
:104FC000070B9D4238DB94F870506E462846FFF779
:104FD00069FD8CB06A46B4F87210B4F87630C2E954
:104FE00007514FF400755362DFF8A0C0284BC2E9A7
:104FF00005C015854FF4535142F8103F20480BF07F
:1050000055FAB54694F871603046FFF74BFD8AB00B
:105010006A46B4F874301F49C2E907631E4BC2E9FF
:10502000051095844FF43351154842F8103F0BF0AA
:105030003DFABD46BDE8F88F5846FEF79FFDEA46AB
:105040008AB06A4640F20133C2E90565D061138433
:105050004FF41351484642F8108F0BF027FA0135F0
:10506000D546ABE700000020D4000020AF6E010061
:105070002E59010032590100000201030400000210
:10508000C43C0100040000014159010052590100D3
:10509000060000019059010005000001F0B583B041
:1050A000604D00AFD5F86431996811F001011AD153
:1050B00040F603403A1DFFF77DFA0446002840F011
:1050C000AD807868C3681B785BB905F1D403D3E879
:1050D000AF2F02F00902D3E8EF1FC3E8E42F002C42
:1050E000F9D104F0A9F8002141F203003A1DFFF7BD
:1050F00061FA0446002840F091807B684A4EDA68E5
:10510000D2F80100D2F8051003C6184604F094F84E
:10511000214641F201003A1DFFF74CFA04460028EF
:105120007CD17868C3685A7885F870205A88A5F8C9
:1051300072201A7985F87120B3F80720A5F8742039
:10514000B3F80530A5F8763004F076F8214641F240
:1051500002003A1DFFF72EFA044600285ED1D7F868
:1051600004C0DCF80C20531C4132344618685968DE
:10517000083303C493422646F7D1604604F05CF836
:1051800001F03AF80446002848D195F88A309B0689
:1051900010D40221254A26480BF07BF995F87C3083
:1051A0005E0649D40121234A21480BF072F96FF0C1
:1051B000120433E0072140F63340FFF7BFF90646FB
:1051C000002800F0228107210C300CF0C8FB1B23C3
:1051D00003700623C0F802408471447004712246B3
:1051E000C370314640F63340FFF7E4F90446A8B9EE
:1051F000012140F63140FFF7A1F90646002800F0F2
:10520000048101210C300CF0B9FB2246314640F6F6
:105210003140FFF7CFF904460028BFD020460C37B5
:10522000BD46F0BD0000002078000020B759010005
:10523000C43C0100E5590100002142F203003A1D7F
:10524000FFF7B8F904460028E8D17B68904EDA6889
:10525000D2F80100D2F8051003C6184603F0ECFF9F
:10526000214642F202003A1DFFF7A4F90446002845
:10527000D4D17C68E368B3F8012091B249B1D97800
:1052800039B1A5F80421DA78114606F128000DF0AD
:10529000E6FD204603F0D0FF1F2395F87C60A5F8BB
:1052A000203116F0200618D1022140F66D40FFF79C
:1052B00045F90446002800F0A88002210C300CF0CB
:1052C0004EFB0123214603704670324640F66D4086
:1052D000FFF770F904460028A0D195F89C301C0710
:1052E00012D5002142F21C003A1DFFF763F9044673
:1052F000002893D17868C368D3F80120D3F805302B
:10530000C5E9382303F098FF95F8D830980621D5E1
:105310003846B91CFFF7C8F9044600287FF47EAF71
:10532000042142F22400FFF709F9064600286CD058
:1053300004210C300CF013FB3B88224603807B8851
:105340003146438042F22400FFF734F90446002836
:105350007FF464AF082142F20100FFF7EFF8044642
:10536000002852D008210C300CF0F9FA95F8D8201A
:1053700012F0020F14BF2F230F23910695F8D920A6
:1053800048BF43F0400312F0090F4FF0000218BF6E
:1053900043F400630370C3F3072321464370827014
:1053A000C270027142718271C27142F20100FFF754
:1053B00001F9044600287FF431AF95F87C30B5F848
:1053C00004119A0624D4C9B941F205003A1DFFF729
:1053D000F1F8044600287FF421AFB5F804317C6869
:1053E0004BB9E368B3F80120A5F804219A8829484D
:1053F00011460DF034FD204603F01EFF082140F653
:105400000140FFF79BF8044660B96FF0680405E7B8
:105410000029F3D10121204A20480BF03AF86FF01F
:105420000404FBE608210C300CF099FA10230370F9
:105430008823002243700226202321468270C670F2
:10544000027142718271C37140F60140FFF7B2F8F8
:10545000044600287FF4E2AE01463A1D4FF60140B3
:10546000FFF7A8F8F0B10E4A02210C480BF011F832
:1054700000F052FB044600287FF4D0AE01F0D6FDC8
:10548000044600287FF4CAAEFFF76EFDC6E600BFF3
:10549000D800002008010020095A0100C43C010086
:1054A0002C5A01007B686E46DC688AB0B4F8013083
:1054B000032B96BF424A434952F823106A46D361F0
:1054C0004FF4007340481384404BC2E9050142F891
:1054D000103F4FF413513E480AF0E8FFB4F80120A2
:1054E000B546022AB4F8033049D1052B47D8394ACA
:1054F00052F823106E468AB06A46D3614FF40073A7
:1055000035481384314BC2E9050142F8103F4FF48E
:1055100013512F480AF0CAFFB546637994F806C0C4
:10552000032B98BF2D4AB4F80760D4F809006C46E5
:105530008CB094BF52F8231022496A46C2E9073C56
:105540004FF40073DFF898E09385264BC2E905E13C
:10555000C2E909604FF4735142F8103F1C480AF049
:10556000A5FFA546786803F067FE00214FF60240CC
:105570003A1DFFF71FF8044618B11B4A74E711499A
:10558000B8E77868C368B3F80130A5F8C13003F014
:1055900053FE95F8C1305B077FF56AAF21464FF6A1
:1055A00003403A1DFFF706F808B1104A5CE7786837
:1055B000C3685B7885F8C03003F03EFE58E700BF53
:1055C000CC41010023580100505A010004000001A1
:1055D000C43C0100B4410100695A0100A44101002A
:1055E000815A010007000001AE5A0100D75A01009C
:1055F00010B5FFF753FD034B1B6813B1BDE8104016
:10560000184710BD381E002070B5344D0646D5F839
:10561000643188B04BB90121314A32480AF039FF70
:105620006FF01204204608B070BD6FF0020105F162
:10563000D4000AF04CFF01210AF02DFF10EA01040A
:1056400048D1294B1E600A4605F594700DF007FC01
:1056500005F5A6700DF0DEFB00220023CDE9062340
:105660006FF008034FF48062CDE90243CDE90044B6
:105670001E4B1F4904941F4807F0B4FD1E491D48E6
:105680000DF023FD1D480DF0C3FC6FF007034FF430
:1056900096621B491948009407F088FC194917487D
:1056A0000DF013FDD5F86431DB689847044630B13E
:1056B00003460121144A0B480AF0E9FEB2E726B975
:1056C00008B0BDE87040FFF7E9BC05F1C40007F081
:1056D00067FCA7E76FF07704A4E700BF0000002095
:1056E000005B0100C43C0100381E0020E14C0000BA
:1056F0003834002040110020195B0100C011002047
:10570000383800201F5B0100285B0100004870470B
:10571000EB480100F8B506460024094DEF79E3B2E5
:105720009F4202D86FF0010007E0294630460AF098
:105730007AFF0735631C08B12046F8BD1C46EEE72A
:105740000000002070B5194E0622314605460DF0C6
:10575000F2FF30B3062142F20500FEF7EFFE0446E9
:1057600008B3062229460C300CF0FFF8214600222F
:1057700042F20500FEF71EFF044648B110F10D0F7E
:1057800004D102210A4A0B480AF055FF204670BD99
:1057900033462A6843F86929AA88B280012283F82F
:1057A00068200024F2E76FF06804EFE7690000204A
:1057B000515C0100E43C010037B504460D4689B157
:1057C000284618490AF02FFF60B9174A2968C4EB28
:1057D000C4041151A318AA889A80AA799A7100204A
:1057E00003B030BD68460AF023FE0028F8D16846B1
:1057F000FFF790FF0028F5DA0B4A0098C4EBC404C9
:1058000010519DF80610BDF80400A31898809971F6
:10581000002DE4D012592A609A88AA809B79AB7136
:10582000DDE700BFFE5201000000002070B5044615
:10583000B1B9C0B11F490AF0F6FEA0B92046FFF782
:1058400069FF00282FDA2378012B04D1A37903F014
:10585000C003C02B07D00121174A18480AF0EBFEFD
:105860006FF0150070BD164DEB79012B1ED005F1C0
:10587000D403D3E8AF3FDB0707D4002CF0D0204699
:105880000C490AF0D0FE0028EAD1EE792146731CBB
:105890003046EB71FFF790FF08B93046E2E7EB794D
:1058A000013BEB71DEE76FF07700DBE76FF00B0099
:1058B000D8E700BFFE520100605C0100E43C01003B
:1058C000000000202DE9F341044640B91A4A0221A4
:1058D0001A480AF0B0FE002002B0BDE8F0810021B5
:1058E00041F2090001AAFEF765FE054608B1144A17
:1058F000EDE7019E0622D6F80C80124908F1010757
:1059000038460DF018FF28B1062238460E490DF032
:1059100012FF18B9304603F08FFCDCE7D8F80130ED
:105920003046C4F80130BB882570A4F8053003F078
:1059300083FC0120D0E700BF8E5C0100E43C010045
:10594000A75C01000B5301000553010007B5684631
:10595000FFF7B8FF044BD87118B169460020FFF774
:105960002BFF03B05DF804FB00000020F0B5304DC4
:1059700089B0EC79002C53D195F8C26016F001067D
:1059800010D12C4A02212C480AF055FEEC71162643
:1059900000240127EB79E0B298422CD3002B3FD0B2
:1059A00000203BE06A4621464FF60940FEF702FE22
:1059B00008B1224AE6E7DDF800C0DCF80C104B78AD
:1059C00023B9604603F038FC1D4ADBE78B1C02AAB2
:1059D00001F11204174618685968083303C7A34237
:1059E0003A46F7D11868344638609B886046BB80D9
:1059F00003F022FCCAE708AB06FB003353F8182C6F
:105A000033F8143C6946CDF80120ADF805308DF827
:105A10000070FFF7D1FE01340028BBD009B0F0BD03
:105A20000021084609B0BDE8F040FFF7FFBE00BF07
:105A300000000020C55C0100E43C0100F15C0100B5
:105A4000115D01002DE9F04190460E461D460246CB
:105A500050B14BB13103047810D5730708D501213B
:105A60002A4A2B480AF0E7FD6FF01500BDE8F081E7
:105A70000AF0F0FD0028F9D1012341E0F70730D505
:105A8000244FB8F1000F13D0B0060AD4C4EBC403FE
:105A9000FB5C012B13D02B70B20620D543F0020320
:105AA0000BE097F8D8305906F0D46FF08500DDE7A9
:105AB000C4EBC403FB5C012B01D02B700FE007216A
:105AC00001FB0471104601310AF0BCFD0028CDD164
:105AD000C4EBC4043B5D2B70B8F1000FDCD1002097
